:020000040800F2
:1000000070060020890100081B0A0008B9080008D2
:10001000190A00088F020008770A00080000000093
:100020000000000000000000000000001F0A00089F
:1000300091020008000000001D0A0008210A0008C3
:10004000A3010008A3010008A3010008A301000800
:10005000A3010008A3010008A3010008A3010008F0
:10006000A3010008A3010008A3010008A3010008E0
:10007000A3010008A3010008A3010008A3010008D0
:10008000A3010008A3010008A3010008A3010008C0
:10009000A3010008A3010008A3010008A3010008B0
:1000A000A3010008A3010008A3010008A3010008A0
:1000B000A3010008A301000800000000A30100083C
:1000C000A30100080000000000000000A3010008D8
:1000D00000000000A3010008A301000800000000C8
:1000E000A3010008A3010008A301000800F002F822
:1000F00000F03AF80AA090E8000C82448344AAF188
:100100000107DA4501D100F02FF8AFF2090EBAE885
:100110000F0013F0010F18BFFB1A43F0010318473B
:100120001C0A00003C0A0000103A24BF78C878C1BD
:10013000FAD8520724BF30C830C144BF04680C60ED
:10014000704700000023002400250026103A28BF35
:1001500078C1FBD8520728BF30C148BF0B60704739
:100160001FB51FBD10B510BD00F058F81146FFF7C0
:10017000F7FF00F091FC00F076F803B4FFF7F2FF10
:1001800003BC00F07DF8000009488047094800479B
:10019000FEE7FEE7FEE7FEE7FEE7FEE7FEE7FEE737
:1001A000FEE7FEE704480549054A064B7047000094
:1001B000750A0008ED00000870000020700600209D
:1001C00070020020700200204FF0000200B51346BC
:1001D00094469646203922BFA0E80C50A0E80C5067
:1001E000B1F12001BFF4F7AF090728BFA0E80C5018
:1001F00048BF0CC05DF804EB890028BF40F8042B11
:1002000008BF704748BF20F8022B11F0804F18BF7D
:1002100000F8012B7047704770477047754600F033
:100220002BF8AE4605006946534620F00700854688
:1002300018B020B5FFF7B6FFBDE820404FF000062C
:100240004FF000074FF000084FF0000B21F00701BE
:10025000AC46ACE8C009ACE8C009ACE8C009ACE801
:10026000C0098D46704710B50446AFF300802046A4
:10027000BDE81040FFF781BF004870471000002024
:1002800001491820ABBEFEE7260002007047FEE7DA
:100290007047000070B5044600F00EF80546601C7B
:1002A00002D004480078044400F006F8401BA04245
:1002B000FAD370BD0000002001488068704700003C
:1002C0000000002002488168027811448160704774
:1002D00000000020074810B5016841F010010160DE
:1002E000032000F067F80F2000F006F800F024F873
:1002F000002010BD0020024070B50D4D04464FF4A3
:100300007A712878B1FBF0F00A490968B1FBF0F086
:1003100000F0BEFA48B9102C07D200222146501E28
:1003200000F028F800206C6070BD012070BD000056
:10033000000000200C0000200C4808B5816941F045
:1003400001018161816901F001010091C16941F000
:100350008051C161C06900F080500090044841683C
:1003600021F0E06141F08061416008BD0010024071
:1003700000000140F0B40E4B1B680C46C3F302238F
:10038000C3F10705042D00D90425191D072901D241
:10039000002300E0DB1E012606FA05F1491E21407C
:1003A00099409E40761E16403143F0BC00F064BB7D
:1003B0000CED00E0064900F0070208684FF6FF0365
:1003C000184040EA0220034A1043086070470000CA
:1003D0000CED00E00000FA052DE9F0470F4605009E
:1003E00061D0434E306800F00700B84209D230684F
:1003F00020F0070038433060306800F00700B84252
:1004000051D128683B4C810712D5400703D560685D
:1004100040F4E06060602878000703D5606840F42D
:10042000605060606068A96820F0F0000843606078
:100430002878C00728D06868012810D021680228D1
:1004400010D0890700292EDA616821F003010143E9
:100450006160FFF731FF804641F288390DE0216885
:100460008903EFE78901EDE7FFF726FFA0EB08011D
:10047000494502D90320BDE8F0876068696800F04B
:100480000C00B0EB810FEFD1306800F00700B842EC
:100490000BD9306820F0070038433060306800F036
:1004A0000700B84201D00120E5E72878400705D5CC
:1004B0006068E96820F4E06008436060287800071D
:1004C00006D56068296920F4605040EAC100606088
:1004D00000F018F86168084AC1F30311515CC84084
:1004E0000649086006480068FFF706FF0020C2E7DB
:1004F00000200240001002402A0B00080C000020DF
:100500000400002012A185B00FC98DE80F0014A0CF
:10051000144A006804905168134801F00C03042B3E
:1005200010D0082B0ED1C1F38343C9031DF803007B
:100530000AD5516804AAC1F34041515C0A4A5043AC
:10054000B0FBF1F005B0704708494843FAE70000F6
:1005500002030405060708090A0B0C0D0E0F101004
:10056000010200000010024000127A0000093D0064
:100570002DE9F84F040070D02078C04DC00749D055
:100580006868C0F38100012807D06868C0F3810063
:10059000022809D16868C00306D52868800339D5C8
:1005A00060680028E7D035E06068B0F5803F0BD088
:1005B00010B1B0F5A02F11D0286820F48030286049
:1005C000286820F4802002E0286840F48030286009
:1005D000606890B1FFF770FE06460AE0286840F4B4
:1005E00080202860F0E700BFFFF766FE801B6428CC
:1005F00073D828688003F7D50CE0FFF75DFE064648
:1006000005E000BFFFF758FE801B6428F0D828687B
:100610008003F7D420789A4E80074FF001094FF0FD
:10062000000839D5686810F00C0F07D06868C0F36F
:100630008100022809D16868C00306D428688007B1
:1006400014D52069012808D110E02069B0B1C6F89E
:100650000090FFF731FE074605E00AE1FFF72CFEA8
:10066000C01B0228C4D828688007F7D528686169AC
:1006700020F0F80040EAC10028600DE0C6F80080D4
:10068000FFF71AFE074604E0FFF716FEC01B02281C
:1006900023D828688007F7D4207800072CD579481C
:1006A000A169D9B1C0F80090FFF706FE074604E043
:1006B000FFF702FEC01B02280FD8686A8007F7D533
:1006C00071484FF4FA510068B0FBF1F0009000BFA0
:1006D0000098411E0091FAD20EE080E0C0F8008040
:1006E000FFF7EAFD074604E0FFF7E6FDC01B02281E
:1006F00075D8686A8007F7D42078400760D5E86924
:100700000027C00008D4E86940F08050E861E8693B
:10071000012700F0805000905C480168C90513D49F
:100720000168834641F480710160FFF7C5FD824690
:1007300006E000BFFFF7C0FDA0EB0A0064284ED81A
:10074000DBF80000C005F5D5E06801280AD008B143
:10075000052813D0286A20F001002862286A20F0BA
:10076000040002E0286A40F001002862E06841F2DB
:10077000883B98B1FFF7A0FD82460BE0286A40F065
:1007800004002862EEE700BFFFF796FDA0EB0A0128
:1007900059455AD8286A8007F6D50CE0FFF78CFD3A
:1007A000824605E0FFF788FDA0EB0A0159454CD8C9
:1007B000286A8007F6D41FB1E86920F08050E8610C
:1007C000E06988B36968C1F38101022944D0022835
:1007D000C6F8608004D0FFF76FFD044638E034E0CF
:1007E000FFF76AFD074604E0FFF766FDC01B02281D
:1007F0002BD828688001F7D4206AB0F5803F05D156
:100800006868A16820F4003008436860D4E90801F2
:100810000843696821F4741108436860C6F8609061
:10082000FFF74AFD044606E025E000BFFFF744FD60
:10083000001B022809D828688001F7D51BE000BFFB
:10084000FFF73AFD001B022802D90320BDE8F88F0C
:1008500028688001F4D40EE00128F7D06868226A85
:1008600000F48031914204D1616A00F47010884232
:1008700001D00120EAE70020E8E700000010024074
:1008800000004242800442420C0000200070004000
:1008900010B5401EB0F1807F01D3012010BD4FF094
:1008A000E02460610F21601700F0E6F80020A061ED
:1008B00007202061002010BDFEE70000044908B5B4
:1008C0008A6902438A6189690140009108BD00007C
:1008D00000100240F0B50A68C2F30F2595FAA5F2A0
:1008E000B2FA82F366E001229A402A4261D0082BD4
:1008F00003D240F201129A4006E0A3F108024FF041
:100900000114944044F080620C69C668170A97FA93
:10091000A7F7B7FA87F726EA1226BC402643C66037
:1009200092FAA2F700EB1264B7FA87F74FEA870C46
:100930000F27266807FA0CF7BE4392FAA2F7D1F800
:1009400004E0B7FA87F7BF000EFA07FE46EA0E0684
:1009500026604F68012F01D0092F2AD192FAA2F701
:10096000B7FA87F74FEA870C032707FA0CF7BE435D
:1009700092FAA2F7B7FA87F7D1F808E0BF000EFAAB
:1009800007FE92FAA2FC46EA0E06BCFA8CFC4FEA7D
:100990008C0E4FF0040C26600CFA0EFC92FAA2F2B8
:1009A000B2FA82F2CF68920026EA0C0697403E43E4
:1009B00026605B1C35FA03F295D10020F0BD0000E3
:1009C0002DE9F04186B014216846FFF7FDFB1020A9
:1009D000FFF774FF0820FFF771FF0D48FF214FF666
:1009E000FF744161DFF82C80C8F81410012502263D
:1009F00000278DE8F0006946FFF76CFF8DE8F000F6
:100A000069464046FFF766FF06B0BDE8F08100008A
:100A100000100140000C0140FEE7FEE77047704700
:100A2000FFF750BC10B590B028216846FFF7CCFB0B
:100A300014210AA8FFF7C8FB0220009001200490AF
:100A400010200024059007946846FFF791FD08B137
:100A500072B6FEE70F20CDE90A040C940D94002134
:100A60000AA80E94FFF7B8FC002801D072B6FEE782
:100A700010B010BD7047FEE70907090E002804DB1F
:100A800000F1E02080F80014704700F00F0000F142
:100A9000E02080F8141D70471CB501208DF8070078
:100AA00002208DF8060003208DF8050004208DF843
:100AB000040005208DF8030006208DF802000720B1
:100AC0008DF8010008208DF80000FFF703FCFFF708
:100AD000A9FFFFF775FF0F4EDFF83C80DFF83C9071
:100AE0006F467F250024FF20F060395D18F8010073
:100AF000C9F80C00C4F1080125FA04F005FA01F266
:100B00001043F0600120FFF7C5FB641CE4B2082C21
:100B1000E9D3E7E7000C0140200B0008001001407A
:100B2000C0F9A4B0999282F8809000000000000003
:100B30000000010203040607080900005C0B00081E
:100B40000000002010000000280100086C0B0008C5
:100B500010000020600600004401000801000000B1
:0C0B600010000000000000000024F40061
:04000005080000ED02
:00000001FF
