:020000040800F2
:1000000070060020890100082F0C00084109000833
:100010002D0C00088F020008BD0C00080000000035
:10002000000000000000000000000000650C000857
:100030009102000800000000630C0008670C000833
:10004000A3010008A3010008A3010008A301000800
:10005000A3010008A301000895020008D5020008CA
:10006000A3010008A3010008A3010008A3010008E0
:10007000A3010008A3010008A3010008A3010008D0
:10008000A3010008A3010008A3010008A3010008C0
:10009000A3010008A3010008A3010008A3010008B0
:1000A000A3010008A3010008A3010008A3010008A0
:1000B000A3010008A301000800000000A30100083C
:1000C000A30100080000000000000000A3010008D8
:1000D00000000000A3010008A301000800000000C8
:1000E000A3010008A3010008A301000800F002F822
:1000F00000F03AF80AA090E8000C82448344AAF188
:100100000107DA4501D100F02FF8AFF2090EBAE885
:100110000F0013F0010F18BFFB1A43F0010318473B
:10012000440C0000640C0000103A24BF78C878C169
:10013000FAD8520724BF30C830C144BF04680C60ED
:10014000704700000023002400250026103A28BF35
:1001500078C1FBD8520728BF30C148BF0B60704739
:100160001FB51FBD10B510BD00F058F81146FFF7C0
:10017000F7FF00F0D1FD00F076F803B4FFF7F2FFCF
:1001800003BC00F07DF8000009488047094800479B
:10019000FEE7FEE7FEE7FEE7FEE7FEE7FEE7FEE737
:1001A000FEE7FEE704480549054A064B7047000094
:1001B000BB0C0008ED000008700000207006002055
:1001C00070020020700200204FF0000200B51346BC
:1001D00094469646203922BFA0E80C50A0E80C5067
:1001E000B1F12001BFF4F7AF090728BFA0E80C5018
:1001F00048BF0CC05DF804EB890028BF40F8042B11
:1002000008BF704748BF20F8022B11F0804F18BF7D
:1002100000F8012B7047704770477047754600F033
:100220002BF8AE4605006946534620F00700854688
:1002300018B020B5FFF7B6FFBDE820404FF000062C
:100240004FF000074FF000084FF0000B21F00701BE
:10025000AC46ACE8C009ACE8C009ACE8C009ACE801
:10026000C0098D46704710B50446AFF300802046A4
:10027000BDE81040FFF781BF004870471000002024
:1002800001491820ABBEFEE7260002007047FEE7DA
:100290007047000070B50D4D00244FF4FA76FF2032
:1002A000E860304600F036F80020E860304600F0A4
:1002B00031F8641C64B2032CF1DB012000F09EFBDA
:1002C000002802D002490120086070BD00100140E2
:1002D0001404014070B50D4D00244FF4FA765520FA
:1002E000E860304600F016F8AA20E860304600F0DA
:1002F00011F8641C64B2032CF1DB022000F07EFBD9
:10030000002802D002490220086070BD00100140A0
:100310001404014070B5044600F00EF80546601C58
:1003200002D004480078044400F006F8401BA042C4
:10033000FAD370BD000000200148806870470000BB
:1003400000000020024881680278114481607047F3
:1003500000000020074810B5016841F0100101605D
:10036000032000F06BF8002000F006F800F024F8FD
:10037000002010BD0020024070B50D4D04464FF422
:100380007A712878B1FBF0F00A490968B1FBF0F006
:1003900000F0C2FA48B9102C07D200222146501EA4
:1003A00000F02CF800206C6070BD012070BD0000D2
:1003B000000000200C0000200E4808B5816941F0C3
:1003C00001018161816901F001010091C16941F080
:1003D0008051C161C06900F080500090052000F09C
:1003E0002DF80548416821F0E06141F080614160ED
:1003F00008BD00000010024000000140F0B40E4BA8
:100400001B680C46C3F30223C3F10705042D00D972
:100410000425191D072901D2002300E0DB1E012657
:1004200006FA05F1491E214099409E40761E16406D
:100430003143F0BC00F060BC0CED00E0064900F078
:10044000070208684FF6FF03184040EA0220034AFB
:1004500010430860704700000CED00E00000FA0552
:100460002DE9F0470F46050061D0434E306800F09B
:100470000700B84209D2306820F0070038433060E6
:10048000306800F00700B84251D128683B4C810722
:1004900012D5400703D5606840F4E06060602878BA
:1004A000000703D5606840F4605060606068A96828
:1004B00020F0F000084360602878C00728D0686802
:1004C000012810D02168022810D0890700292EDACF
:1004D000616821F0030101436160FFF72DFF804651
:1004E00041F288390DE021688903EFE78901EDE7E2
:1004F000FFF722FFA0EB0801494502D90320BDE820
:10050000F0876068696800F00C00B0EB810FEFD1F4
:10051000306800F00700B8420BD9306820F00700BF
:1005200038433060306800F00700B84201D0012045
:10053000E5E72878400705D56068E96820F4E060C1
:10054000084360602878000706D56068296920F4B0
:10055000605040EAC100606000F018F86168084A25
:10056000C1F30311515CC8400649086006480068A1
:10057000FFF702FF0020C2E7002002400010024007
:10058000540D00080C0000200400002012A185B0CA
:100590000FC98DE80F0014A0144A00680490516838
:1005A000134801F00C03042B10D0082B0ED1C1F31B
:1005B0008343C9031DF803000AD5516804AAC1F397
:1005C0004041515C0A4A5043B0FBF1F005B070471E
:1005D00008494843FAE70000020304050607080932
:1005E0000A0B0C0D0E0F101001020000001002404B
:1005F00000127A0000093D002DE9F84F040070D088
:100600002078C04DC00749D06868C0F38100012838
:1006100007D06868C0F38100022809D16868C00368
:1006200006D52868800339D560680028E7D035E012
:100630006068B0F5803F0BD010B1B0F5A02F11D09D
:10064000286820F480302860286820F4802002E0A8
:10065000286840F480302860606890B1FFF76CFE35
:1006600006460AE0286840F480202860F0E700BFD2
:10067000FFF762FE801B642873D828688003F7D5D3
:100680000CE0FFF759FE064605E000BFFFF754FEF9
:10069000801B6428F0D828688003F7D420789A4E0D
:1006A00080074FF001094FF0000839D5686810F055
:1006B0000C0F07D06868C0F38100022809D1686870
:1006C000C00306D42868800714D52069012808D102
:1006D00010E02069B0B1C6F80090FFF72DFE074684
:1006E00005E00AE1FFF728FEC01B0228C4D82868ED
:1006F0008007F7D52868616920F0F80040EAC1005A
:1007000028600DE0C6F80080FFF716FE074604E0FB
:10071000FFF712FEC01B022823D828688007F7D4F1
:10072000207800072CD57948A169D9B1C0F800908C
:10073000FFF702FE074604E0FFF7FEFDC01B02289C
:100740000FD8686A8007F7D571484FF4FA510068EE
:10075000B0FBF1F0009000BF0098411E0091FAD26A
:100760000EE080E0C0F80080FFF7E6FD074604E0F9
:10077000FFF7E2FDC01B022875D8686A8007F7D42E
:100780002078400760D5E8690027C00008D4E869F0
:1007900040F08050E861E869012700F08050009047
:1007A0005C480168C90513D40168834641F480712F
:1007B0000160FFF7C1FD824606E000BFFFF7BCFD08
:1007C000A0EB0A0064284ED8DBF80000C005F5D580
:1007D000E06801280AD008B1052813D0286A20F063
:1007E00001002862286A20F0040002E0286A40F034
:1007F00001002862E06841F2883B98B1FFF79CFD58
:1008000082460BE0286A40F004002862EEE700BF51
:10081000FFF792FDA0EB0A0159455AD8286A8007D4
:10082000F6D50CE0FFF788FD824605E0FFF784FD72
:10083000A0EB0A0159454CD8286A8007F6D41FB1AD
:10084000E86920F08050E861E06988B36968C1F325
:100850008101022944D00228C6F8608004D0FFF745
:100860006BFD044638E034E0FFF766FD074604E020
:10087000FFF762FDC01B02282BD828688001F7D43F
:10088000206AB0F5803F05D16868A16820F4003087
:1008900008436860D4E908010843696821F47411C9
:1008A00008436860C6F86090FFF746FD044606E01E
:1008B00025E000BFFFF740FD001B022809D828688B
:1008C0008001F7D51BE000BFFFF736FD001B0228B3
:1008D00002D90320BDE8F88F28688001F4D40EE027
:1008E0000128F7D06868226A00F48031914204D16F
:1008F000616A00F47010884201D00120EAE700200C
:10090000E8E700000010024000004242800442423A
:100910000C0000200070004010B5401EB0F1807F38
:1009200001D3012010BD4FF0E02460610F2160175A
:1009300000F0E2F90020A06107202061002010BD36
:10094000FEE70000044908B58A6902438A618969A3
:100950000140009108BD00000010024030B5264A59
:10096000002405790168131F85B371B345798DB1F2
:10097000012D17D0022D18D0012483792BB31E49E5
:1009800008310A1F012B18D0022B20D0032B22D0B4
:10099000012428E015688D43156001681A680A4330
:1009A0001A60EAE71D688D4301E01D680D431D6074
:1009B000016813680B431360DFE703680D689D430C
:1009C0000D6000681168014311600CE00DE00368E0
:1009D00015689D4302E0036815681D4315600068B3
:1009E0000A6802430A60204630BD1D688D431D60C1
:1009F000006811688143E7E704040140034909687E
:100A0000884301D000207047012070471404014042
:100A10000A06930D064A1A44936823EA1143090C07
:100A200091FAA1F1B1FA81F18840034393607047D4
:100A300000000140F0B50A68C2F30F2595FAA5F24F
:100A4000B2FA82F369E001229A402A4264D0082B6C
:100A500003D240F201129A4006E0A3F108024FF0DF
:100A60000114944044F080624C68082C0BD10C694E
:100A7000C668170A97FAA7F7B7FA87F726EA122681
:100A8000BC402643C66092FAA2F700EB1264B7FAA4
:100A900087F74FEA870C0F27266807FA0CF7BE4343
:100AA00092FAA2F7D1F804E0B7FA87F7BF000EFA7E
:100AB00007FE46EA0E0626604F68012F01D0092F77
:100AC0002AD192FAA2F7B7FA87F74FEA870C0327E1
:100AD00007FA0CF7BE4392FAA2F7B7FA87F7D1F8F4
:100AE00008E0BF000EFA07FE92FAA2FC46EA0E06E4
:100AF000BCFA8CFC4FEA8C0E4FF0040C26600CFA0A
:100B00000EFC92FAA2F2B2FA82F2CF68920026EAC2
:100B10000C0697403E4326605B1C35FA03F292D1E7
:100B20000020F0BD30B591FAA1F400EB1160B4FAE9
:100B300084F4A5000F24AC4091FAA1F10368B1FA46
:100B400081F18900A3438A401343036030BD000054
:100B500070B588B000240094142102A80194FFF716
:100B600033FB1020FFF7EEFE0820FFF7EBFE2C48CA
:100B7000FF224FF6FF71426102AA01250226059469
:100B800082E8620002A9FFF755FF4FF470210120AF
:100B9000FFF73EFF4FF470010120FFF739FF8DF89A
:100BA00004508DF8054000958DF806606846FFF703
:100BB000D5FE8DF804508DF8054000968DF806603E
:100BC0006846FFF7CBFE174C042240F20111204685
:100BD000FFF7A8FF042240F202212046FFF7A2FF00
:100BE000114C20680222C0F30220114600F020F8C8
:100BF0000146062000F070F8062000F060F820683A
:100C00000122C0F30220114600F012F8014607202D
:100C100000F062F8072000F052F808B070BD000044
:100C200000100140000C01400CED00E0FEE7FEE783
:100C300030B500F00703C3F10704042C00D90424E5
:100C4000181D072801D2002300E0DB1E012505FA4C
:100C500004F0401E084098409D406D1E15402843FA
:100C600030BD70477047FFF76DBB10B590B02821BD
:100C70006846FFF7A9FA14210AA8FFF7A5FA02208F
:100C800000900120049010200024059007946846ED
:100C9000FFF7B2FC08B172B6FEE70F20CDE90A04F7
:100CA0000C940D9400210AA80E94FFF7D9FB00289C
:100CB00001D072B6FEE710B010BD7047FEE7002805
:100CC00009DB00F01F02012191404009800000F182
:100CD000E020C0F8001170470907090E002804DB66
:100CE00000F1E02080F80014704700F00F0000F1E0
:100CF000E02080F8141D70470907090E002804DB66
:100D000000F1E02080F80014704700F00F0000F1BF
:100D1000E02080F8141D7047FFF71CFBFFF7A5FFCC
:100D2000FFF716FF0A4EFE254FF4FA775FF0000436
:100D3000C4F1080105FA04F025FA01F21043F0604D
:100D40003846FFF7E7FA641C64B2082CF0DBEDE7E5
:100D50000010014000000000000000000102030438
:100D600006070809840D000800000020100000009C
:100D700028010008940D0008100000206006000003
:100D80004401000801000000100000000000000005
:040D90000024F40047
:04000005080000ED02
:00000001FF
