:020000040800F2
:10000000E8060020A10100087F260008D925000885
:100010007D26000849120008112900080000000090
:10002000000000000000000000000000832600081F
:10003000A91200080000000081260008852600089B
:10004000BB010008BB010008BB010008BB010008A0
:10005000BB010008BB010008BB010008BB01000890
:10006000BB010008BB010008BB010008BB01000880
:10007000BB010008BB010008BB010008BB01000870
:10008000BB010008BB010008BB010008BB01000860
:10009000BB010008BB010008BB010008BB01000850
:1000A000BB010008BB010008BB010008BB01000840
:1000B000BB010008BB01000800000000BB010008F4
:1000C000BB0100080000000000000000BB010008A8
:1000D0000000000005290008BB0100080000000026
:1000E000BB010008BB010008BB01000800F002F8DA
:1000F00000F047F80AA090E8000C82448344AAF17B
:100100000107DA4501D100F03CF8AFF2090EBAE878
:100110000F0013F0010F18BFFB1A43F0010318473B
:10012000C02E0000E02E0000103A24BF78C878C12D
:10013000FAD8520724BF30C830C144BF04680C60ED
:10014000704700000023002400250026103A28BF35
:1001500078C1FBD8520728BF30C148BF0B60704739
:10016000662902F09286002070471FB500F0D6FA8B
:1001700004000020002102F049FCE0601FBD10B522
:1001800010BD00F0C7FB1146FFF7EFFF02F0E6FBE2
:1001900000F0E5FB03B4FFF7F2FF03BC00F028FC1E
:1001A0000948804709480047FEE7FEE7FEE7FEE70B
:1001B000FEE7FEE7FEE7FEE7FEE7FEE70448054947
:1001C000054A064B70470000F1260008ED000008C4
:1001D000E8000020E8060020E8020020E8020020F5
:1001E0000FB41CB5074B06AA7B44694600900598DE
:1001F00000F07BFA0020694600F08AFA1CBC5DF82A
:1002000014FB0000250500002DE9F0410E460446D0
:10021000002020622046E168884730B3252805D0B9
:10022000D4E901219047206A401CF2E7E1682046AA
:1002300000278847050018D0A5F14100192802D8E9
:1002400020354FF400673246294620462760FFF7E5
:1002500087FF40B1012804D0F61D26F007060836B6
:10026000D8E7361DD6E72846DAE7206ABDE8F081F0
:100270004FF0000200B5134694469646203922BF3F
:10028000A0E80C50A0E80C50B1F12001BFF4F7AF8A
:10029000090728BFA0E80C5048BF0CC05DF804EB6C
:1002A000890028BF40F8042B08BF704748BF20F8DA
:1002B000022B11F0804F18BF00F8012B70477047D8
:1002C0007047704770472DE9FF4F0C461E464FF0B0
:1002D000FF378BB0D2E90001DDF860800A908A46D2
:1002E000C1F30A5505B93D46002108464FF000000C
:1002F000BAF1000F00F4400005DA00EB80004FF483
:10030000400101EA50004FEA9059B9F1010F00DDB8
:10031000B9460A9850EA4A000ED044F61050A5F2A9
:10032000FF3545432F14B8F1000F1ED07542291E2A
:100330001EDDC9F100021CE0B8F1010F4FF0000012
:1003400001D0302103E0F24305E02154401CB042CB
:10035000FBDB30460022002121540B99C1F80880B4
:10036000C1E900200FB0BDE8F08FBD1B6D1CDEE7BA
:100370004A4600DA694206A800F05AFA06AB93E84A
:10038000070003AB83E8070050460A9900F037FBEB
:100390008DE80700A0F500501F3800900398002D4D
:1003A00009DD42F21F014A46084403A9039068464A
:1003B00000F096FD08E0A0F500504A461F3803A95A
:1003C0000390684600F0A0FD8DE807000004000CD3
:1003D00003D04FF0FF30410800E01046B8F1000FA5
:1003E00003D00022009215461EE0751E05D400F0D1
:1003F00099F9303262556D1EF9D5B3460122084392
:1004000002D000227F1C04E02078302801D1002295
:100410007F1E002A099786D01DE0112D07DA00F013
:1004200081F9303262556D1C50EA0102F5D1084362
:1004300002D00098C8B10EE00021681E05E0235CE0
:10044000625C63542254401E491C8142F7DBAB4678
:10045000A81B401E0990002004F80B000B98099A75
:10046000C0F80880C0E9002B7CE711264FF0000897
:1004700059E72DE9F04F88460446D21D22F00701C6
:1004800091B0D1E90001CDE90A0102F042FA024639
:100490000B98C00F01D02D2007E02068810701D5FF
:1004A0002B2002E0202101EAC000032A099001D09C
:1004B000072A05DB03464146204600F079F90BE1A7
:1004C0002078800601D5E06900E00620B8F1650FCC
:1004D000814606D0B8F1660F18D0B8F1670F70D119
:1004E00031E00020B9F1110F009001DB112301E090
:1004F00009F101030AAA01A90CA8FFF7E4FEDDE94E
:100500000C70002609F10105834647E001204B46A7
:1005100000904FF000470AAA01A90CA8FFF7D3FEEC
:10052000DDE90DB00C995D46002610B909F1010016
:100530000D18B9EB050003D4C0F1FF3609F1010530
:10054000A5EB09002BE0B9F1010F01DA4FF0010929
:100550000020B9F1110F0090484601DD112300E0A1
:1005600003460AAA01A90CA8FFF7ADFEDDE90C704D
:100570004D4600268346207800070AD4AB4500DAB2
:100580005D4601A8012D04DD411911F8011C302937
:1005900007D04F4502DA17F1040F04DA0120824632
:1005A0000FE06D1EEEE7002F02DCED1B3E4403E082
:1005B000781CA84200DD7D1CB81B00F1010A4FF039
:1005C00000472078000703D4AA4501DB4FF0FF3A2B
:1005D0000021B7F1004F0DF143088DF8431024D0EE
:1005E00002202B23002F01DA7F422D230A21021E35
:1005F000A0F1010000DC5FB197FBF1FC97FBF1F289
:1006000001FB1C7C17460CF1300C08F801CDEEE71D
:10061000A8F1010003702188090501D5452100E0FA
:100620006521A0F1010800F8011C09980FA9A1EBB0
:100630000807FF1D00B10120411901EBEA70A16913
:100640003844081A401EA0612078C00602D4204613
:10065000AFF30080099828B1D4E901219047206ABE
:10066000401C20622078C00622D52046AFF30080CF
:100670001EE0002E04DBB34502DD01A8805D00E032
:100680003020D4E901219047206A401C2062761C6A
:10069000AAF101005FEA000A0AD100F03FF8C06841
:1006A0000168405CD4E901219047206A401C206227
:1006B000281EA5F10105DCDC07E0D4E9012118F8CA
:1006C000010B9047206A401C2062381EA7F10107E9
:1006D000F3DC2046AFF30080032011B043E60000B6
:1006E00001694A1C02610878704700B58FB0CDE9F6
:1006F00001310021059105497944CDE903101146E6
:100700006846FFF781FD0FB000BD0000E5FFFFFF69
:100710000A6802F8010B0A60704700000048704741
:10072000A400002030B5B0F10A024FEA900E71F13A
:1007300000034EEA817EB0EB0E0061EB91014FEABF
:10074000101E4EEA017E10EB0E0041EB11114FEA34
:10075000102E4EEA016E10EB0E0041EB11214FEA14
:10076000104E4EEA014E10EB0E0041EB11414018C5
:1007700041F100014FEAD00040EA41704FEAD10157
:1007800010EB80054FEA810444EA907444EB0104C5
:100790006D1944EB0404521BA3414FF0000348BF02
:1007A0000A3200D530BD401C41F1000130BD0000CF
:1007B0002DE9F0411F46044603260168072A01F48B
:1007C000006004DB08B116A505E016A503E008B13A
:1007D00015A500E015A521F010002060A069C01E3D
:1007E000A0610FB1401EA0612046AFF300804FB161
:1007F000D4E9012138469047206A401C2062C01C81
:10080000206206E0206AFAE7D4E9012115F8010B1D
:100810009047761EF8D22046AFF30080BDE8F08105
:100820004E414E006E616E00494E4600696E660094
:100830002DE9F047814616468AB0334878440DC802
:100840008DE80D0030487844801C03AC0DC884E866
:100850000D0041F69B300844372190FBF1F290FBEC
:10086000F1F5A5F1800501FB12041B3C02D56442A1
:10087000012000E00020DFF890A080460027FA4425
:10088000AAF1BE0A0DE0E00709D03246684607EB40
:1008900047010AEB810100F037FB8DE80700641087
:1008A0007F1C002CEFD1184F7F44AC3F18E0E807C5
:1008B00014D007EB04100DF1180A90E80E008AE836
:1008C0000E00C068F04201D198190890324606A97E
:1008D00003A800F019FB03AB83E807006D10641C4C
:1008E000002DE4D132466946B8F1000F03A802D0CA
:1008F00000F0F6FA01E000F007FBC9E90001C9F8D1
:1009000008200AB0BDE8F08788270000004870473B
:10091000840000207546FFF7F9FFAE4605006946E2
:10092000534620F00700854618B020B5FFF746FC77
:10093000BDE820404FF000064FF000074FF00008E0
:100940004FF0000B21F00701AC46ACE8C009ACE861
:10095000C009ACE8C009ACE8C0098D46704710B5C5
:100960000446AFF300802046BDE81040FFF712BCFC
:100970004FF0013C50F8042B51F8043B9A4221D12E
:10098000A2EB0C03934313EACC1317D150F8042BBA
:1009900051F8043B9A4215D1A2EB0C03934313EA9E
:1009A000CC130BD150F8042B51F8043B9A4209D1D7
:1009B000A2EB0C03934313EACC13DBD04FF00000FF
:1009C000704700BFD01A01BAB1FA81F101F01801E5
:1009D00022FA01F0CB40C1F12001DBB2C0B2C01A53
:1009E0002CFA01F3D11A914311EAC311E6D17047F1
:1009F00001491820ABBEFEE72600020070475FEAFF
:100A0000400C08BF91F0000F4FEA8C234FEAC1223F
:100A100043EA51514FEA1C5018BF00F5F0404FEA2D
:100A2000300018BF41F000415FEA6C5C00F02980A3
:100A3000BCF1FF3F08BF40F080407047130C06BF79
:100A400012044FF0100C4FF0000C130E04BF1202F2
:100A50000CF1080C130F04BF12010CF1040C930FDE
:100A600004BF92000CF1020CD30F04BF52000CF132
:100A7000010C11464FF00002A0F11F00A0EB0C008A
:100A8000704711F0004F08BF704731F000413FF44C
:100A9000D5AF0B0C06BF09044FF0100C4FF0000C43
:100AA0000B0E04BF09020CF1080C0B0F04BF090167
:100AB0000CF1040C8B0F04BF89000CF1020CCB0F5E
:100AC00004BF49000CF1010CCCF12003A0EB0C0099
:100AD00022FA03F302FA0CF241EA030100F10100E9
:100AE000704720F07F4C80EA030023F07F47ACEB97
:100AF000070303F57C5300F0004003F1FF032DE9E9
:100B000080494FEA154B09B44FEA144325EA0B4ECE
:100B100024EA03480FF2042606EB132749083E781F
:100B20005FEA320203FB0667C7F5000707FB06F61C
:100B30004FEA54374FEAD64606F1020607FB066C29
:100B4000CCF1005C4FEA1C472CEA074C07FB06F48B
:100B50000CFB06F504EB15464FEA961634BF002051
:100B60004FF000404FEAD13706FB07FC4FEA1C4C20
:100B70000CFB0BF7D21B03FB0CF761EB07010CFB23
:100B80000EF7B0EB074072EB17420CFB08F734BFCF
:100B9000A2EB0742B2EB074261EB17414FEA0C446C
:100BA0004FEA910706FB07FC4FEA1C4C0CFB0BF7C6
:100BB000B0EBC74072EB573203FB0CF734BFA2EB2C
:100BC000C742B2EBC74261EB57310CFB0EF7B0EBFB
:100BD000C70072EB57720CFB08F734BFA2EBC702D9
:100BE000B2EBC70261EB5771039F4FEA816141EAA3
:100BF000921104EBCC044FEAD1374FEA826206FB34
:100C000007FC42EA90124FEA80604FEA1C4C0CFB52
:100C10000BF7D21B03FB0CF761EB07010CFB0EF784
:100C2000B0EB074072EB17420CFB08F734BFA2EBA6
:100C30000742B2EB074261EB17414FEA8C554FEA8E
:100C4000910704EB9C2406FB07FC4FEA1C4C0CFBB1
:100C50000BF7B0EBC74072EB573203FB0CF734BF16
:100C6000A2EBC742B2EBC74261EB57310CFB0EF768
:100C7000B0EBC70072EB57720CFB08F734BFA2EB66
:100C8000C702B2EBC70261EB577115EB4C254FEA77
:100C9000816141EA92114FEA82624FEAD13742EA1A
:100CA000901206FB07FC44F100044FEA80604FEA13
:100CB0001C4C0CFB0BF7D21B03FB0CF761EB070181
:100CC0000CFB0EF7B0EB074072EB17420CFB08F77A
:100CD00034BFA2EB0742B2EB074261EB174115EBC1
:100CE0001C154FEA813141EA92414FEA823242EAD1
:100CF00090424FEA80304FEA0C7644F1000448EA13
:100D000003434EEA0B484FF0000EB2EB080C71EBB8
:100D1000030724BF624639464EEB0E0E4FF0000B20
:100D20000018524149414BEB0B0BB2EB080C71EB35
:100D300003077BF1000B24BF624639464EEB0E0ED3
:100D40004FF0000B0018524149414BEB0B0BB2EB3B
:100D5000080C71EB03077BF1000B24BF6246394698
:100D60004EEB0E0E51EA020718BF46F0010616EBD5
:100D70000E7655F1000254F1000103D5BDE889015A
:100D8000BDE80088BDE88901BDE80048B6195241B8
:100D900041EB0101A3F10103704780807F7E7D7CE0
:100DA0007B7A7978777676757473727171706F6EFD
:100DB0006E6D6C6C6B6A6A696868676666656464A8
:100DC000636362616160605F5F5E5E5D5D5C5C5B32
:100DD0005B5A5A59595858575756565555555454A1
:100DE000535352525251515050504F4F4F4E4E4DFF
:100DF0004D4D4C4C4C4B4B4B4A4A4A49494948484B
:100E0000484747474746464645454544444444438A
:100E100043434342424242414141002B26D47700A2
:100E200021D01CB54FEA370703B44FF010004FF044
:100E300010014FF000000FBCBDE810400BF1010B9A
:100E4000BBF1010F08BF5FEA170722BF12F10102D1
:100E500011F101014FF0004143F1000300F00040A7
:100E600043EA00007047F9D35708DAE746EA064636
:100E700013F1400F4FEA16461FDD13F1200FDFBFBD
:100E800016430A46002120335B42C8D0C3F1200735
:100E900046EA064602FA07F74FEA164646EA07060A
:100EA000C3F1200722FA03F201FA07F721FA03F14E
:100EB0004FF0000342EA0702B1E746EA020646EABB
:100EC00006464FEA164646EA0106BCBF46EA064613
:100ED000360C4FF000034FF000024FF000019EE788
:100EE0002DE9C048934630B491E8380007C831EA8C
:100EF000400C48BF34EA430C03D5FFF7F2FDFFF77F
:100F00008CFFF0BCBDE800882DE9C048934630B4A2
:100F100091E8380007C810F0804F08BF13F0804FE9
:100F200003D100F005F8FFF778FFF0BCBDE80088BA
:100F300020F07F4780EA030023F07F4C07EB0C038F
:100F4000A3F57C5300F00040A3F1FE0392F0000FE4
:100F500000F0B38095F0000F00F077802DE9014993
:100F60004FEA11404FEA144621EA004800FB06FC14
:100F700024EA064708FB06F607FB08F800FB07F71C
:100F800018EB06484CEB164C4FEA124B18EB07488F
:100F90004FEA15464CEB174022EA0B4E0BFB06FCC2
:100FA00025EA06470EFB06F607FB0EFE0BFB07F7CE
:100FB0001EEB064E4CEB164C4FF000061EEB074E98
:100FC0004CEB174B18EB0B0840F1000018EB0E0B25
:100FD00058EB000840F100008F1A4FF000013CBFB1
:100FE000C943661B14BFB5EB040C00213CBFC943C9
:100FF000F61B4FEA17444EEA8E0E27EA04454FEAE5
:101000001C4704FB07622CEA074C05FB07F70CFBA7
:1010100005F604FB0CFC16EB074642EB174216EBF9
:101020000C4642EB1C421BEB060658EB0202414108
:1010300046EA9E0601D5BDE80189B619524141EB49
:101040000101A3F10103BDE801894FEA14454FEA0C
:10105000114724EA054621EA074C05FB07F406FB85
:1010600007F70CFB06F105FB0CFC11EB074144EB09
:1010700017444FEA124711EB0C4144EB1C4422EA9F
:10108000074C05FB07F206FB07F70CFB06F605FB12
:101090000CFC16EB074642EB174216EB0C4642EBF4
:1010A0001C456A1854F1000148BF7047B6195241F7
:1010B00041EB0101A3F10103704795F0000F37D018
:1010C0004FEA11424FEA144721EA024624EA074C4C
:1010D00002FB07F106FB07F70CFB06F402FB0CFC16
:1010E00014EB074441EB17414FEA154714EB0C444E
:1010F00041EB1C4125EA074C02FB07F506FB07F70D
:101100000CFB06F602FB0CFC16EB074645EB1745FD
:1011100016EB0C4645EB1C42121951F1000148BF79
:101120007047B619524141EB0101A3F10103704729
:101130004FEA14454FEA114724EA054621EA074CD5
:1011400005FB07F106FB07F70CFB06F24FF0000664
:1011500005FB0CFC12EB074241EB174112EB0C4272
:1011600051EB1C4148BF7047921841EB0101A3F1BC
:101170000103704770B5044600688168C943C90718
:1011800017D1816821F00101816000F047FC05461C
:101190000AE000BF00F042FC401B022804D920688E
:1011A0008068C043C00706D020688068C043C0077D
:1011B000F0D0002070BDA06A40F01000A062E06A8C
:1011C00040F00100E062012070BD0000F8B500268B
:1011D0000446009600688168C943C9072DD081681C
:1011E00041F001018160164816490068B0FBF1F03A
:1011F00000E0401E00900028FBD100F00FFC0546E7
:1012000016E000BF00F00AFC401B022810D920683D
:101210008068C043C0070BD0A06A40F01000A062F5
:10122000E06A40F00100E06284F824600120F8BD2B
:1012300020688068C043C007E4D10020F8BD0000EA
:101240000C00002040420F00FEE700002DE9F041B5
:10125000044600221349104601EB80035B68A34259
:1012600019D851F82030A34215D301EB80011D4657
:101270004E6801F037FD0746A81B01F033FD064616
:10128000281B01F02FFD314601F06AFC394601F0C0
:1012900005FC024602E0401C2728DDD91046BDE8C7
:1012A000F0810000902E0008704772B6FEE7000043
:1012B000F8B50024009490F824202546012A12D085
:1012C000012280F824204A681F23072A0DD20668CD
:1012D000776B521E02EB820293409F430B68934050
:1012E0001F43776319E00220F8BD06680D2A0AD271
:1012F000376BD21F02EB820293409F430B689340EF
:101300001F43376309E0F76A0D3A02EB820293400C
:101310009F430B6893401F43F7620A6807230668E0
:101320000A2A0AD3F7680A3A02EB420293409F4323
:101330008B6893401F43F76008E0376902EB420275
:1013400093409F438B6893401F4337610A68102A7C
:1013500001D0112A20D1124B02689A4217D193680A
:101360001B0219D4936843F40003936009681029A1
:1013700012D10C490C4A0968B1FBF2F101EB810171
:10138000490000E0491E00910029FBD104E0816A78
:1013900041F020018162012480F824502046F8BDEC
:1013A000002401400C00002040420F000068C06C87
:1013B000704700002DE9F0414FF0000704003D4662
:1013C0007ED0A06A002628B9E66284F82460204610
:1013D00000F07EF82046FFF7CDFEA16A01F0100173
:1013E000014304D0A06A40F01000A06268E0A16A46
:1013F00021F4885141F00201A1626268E169237B16
:101400000A4347EA43010A43A1684FF48077B9428F
:1014100008D0012906D0002194F814C0BCF1010FB6
:1014200002D00AE03946F7E7F3B1A36A43F020039C
:10143000A362E36A43F00103E3622368D3F804C0C4
:101440002CF4694C4CEA010CC3F804C02368996879
:10145000DFF870C001EA0C0111439960A168B9423C
:101460000BD0012909D00CE0DFF85CC0A3690CEBBC
:1014700043330B4343F40061DFE7218A0D05A5F5F3
:1014800080152168CB6A23F470032B43CB6221685B
:1014900089680E4B1940914208D1E662A16A21F099
:1014A000020141F00101A162BDE8F081A06A20F0D3
:1014B000020040F01000A062E06A40F00100E0622B
:1014C0000120F1E7FDF7E1FF00E0FFFFFE0E1FFF47
:1014D00000B585B00021009101910291039100684F
:1014E0000E49884218D10E48816941F4007181612A
:1014F000816901F400710491816941F00401816105
:101500008069694600F004000490022000900320E6
:101510000190044800F0A2F905B000BD002401408C
:1015200000100240000801402DE9F84300270D4655
:101530000446009700F072FA804620688168C90569
:1015400008D5A06A40F02000A06284F82470012031
:10155000BDE8F8834168C90503D4C06A10F4700F70
:101560002AD0022000F0F8FA3B490968B1FBF0F6F6
:101570002068036939490B424FEA61014FEAA11221
:101580001FD1C3684FEA611C13EA0C0F19D103691C
:101590000B4225D1C068104222D1142023E0681CE0
:1015A0000AD02DB100F03AFAA0EB0800A84203D906
:1015B00020680068800725D5206800688007EED580
:1015C0002DE003690B4202D1C168114206D00269C5
:1015D00023490A4206D1C068084203D1542002E0E0
:1015E000292000E0FC204643009816E0681C11D03A
:1015F0002DB100F013FAA0EB0800A8420AD9009818
:10160000B04207D2A06A40F00400A06284F82470BF
:1016100003209DE70098401C0090B042E6D321686B
:101620006FF012000860A06A40F40070A0622068A9
:101630008068C0F3424007280CD1207B50B9A06AD3
:1016400020F48070A062A06AC00403D4A06A40F0B5
:101650000100A06200207BE70C00002024499224B6
:101660004992240070B5044690F8240001280DD05A
:10167000012084F824002046FFF7A8FD02004FF067
:10168000000005D084F82400104670BD022070BD13
:10169000A16A40F20123994341F48071A1621F4D78
:1016A00023681F49AB4218D10E6816F4702F14D06E
:1016B000A66A46F48016A6620E68760505D5A66A67
:1016C00026F4005646F48056A662A66AF6040AD5A9
:1016D000E66A26F00606E66206E0A66A26F48016AA
:1016E000A6625E68E9E7E06284F824006FF0020019
:1016F000186020688368C3F34243072B05D1A842D2
:1017000008D1096811F4702F04D0816841F4801168
:101710008160B9E7816841F4A001F9E70028014040
:101720000424014010B5044690F82400012807D095
:10173000012084F824002046FFF71CFD10B107E0CB
:10174000022010BDA16A21F4885141F00101A1627B
:10175000002184F8241010BD10B590F8211000224B
:10176000022905D00421816380F82020012010BDCA
:1017700001680B6823F00E030B6001680B6823F00F
:1017800001030B6090F84030C46B012101FA03F3B0
:10179000636080F8211080F82020104610BD000002
:1017A00010B590F821100024022903D00421816390
:1017B00001243DE001680A6822F00E020A60016817
:1017C0000A6822F001020A601A4A0168914201D1B6
:1017D000012121E0174A1432914201D110211BE06E
:1017E000144A2832914201D1891515E0114A3C3240
:1017F000914201D189140FE00E4A5032914202D138
:101800004FF4803108E00B4A6432914202D14FF428
:10181000801101E04FF08071064A083A51600121C1
:1018200080F82110002180F82010416B01B1884719
:10183000204610BD0800024070B5044600F0EEF8E6
:101840000546601C02D004480078044400F0E6F825
:10185000401BA042FAD370BD000000202DE9F84FD4
:10186000DFF89C91002409F1040A0AF1040B2346D5
:101870000F270BF1040EBBE00125A5402A40AA4228
:1018800076D1DFF880C14E68A6EB0C0866452BD0F8
:101890000DDC032E34D005DC36B3012E19D0022E18
:1018A0002FD11BE0112E16D0122E2AD119E0B8F537
:1018B000881F19D006DCB8F5803F15D0B8F5801F19
:1018C0001FD111E0B8F5001F0ED0B8F5041F18D1D4
:1018D0000AE0CB6815E0CB681B1D12E0CB6808332B
:1018E0000FE0CB680C330CE08B682BB1012B4FF071
:1018F000080303D0456104E0042302E0056100E031
:101900000023FF2A01D8064601E000F104064FEA51
:10191000840501D9A5F12005D6F8008007FA05FC59
:1019200028EA0C0803FA05F548EA0508C6F800801D
:101930004D68ED005BD5344DAE6946F00106AE61F1
:10194000AD6924F0030605F0010500952F4D06EB67
:10195000050CDCF80850A607360F07FA06F825EA4A
:101960000805DFF8AC80404503D14FF0000810E0D7
:101970003DE0DFF8A080404502D14FF0010808E0CB
:10198000DFF89480404502D14FF0020801E04FF0AB
:10199000030808FA06F848EA0508CCF808804D68FC
:1019A000D9F80060ED034D4601D5164300E096439B
:1019B0002E604D68DAF80060AD03554601D5164338
:1019C00000E096432E604D68DBF80060ED025D4656
:1019D00001D5164300E096432E604D68DEF80060A6
:1019E000AD02754601D5164300E096432E60641C97
:1019F0000A6832FA04F57FF43FAFBDE8F88F0000C3
:101A000000040140000011100010024000000140DD
:101A100000080140000C01400010014001488068AE
:101A200070470000000000200248816802781144DD
:101A30008160704700000020074810B5016841F040
:101A400010010160032000F075F80F2000F006F887
:101A500000F024F8002010BD0020024070B50D4DAC
:101A600004464FF47A712878B1FBF0F00A4909680E
:101A7000B1FBF0F000F0C6FB48B9102C07D20022F1
:101A80002146501E00F036F800206C6070BD012029
:101A900070BD0000000000200C0000200C4808B5BC
:101AA000816941F001018161816901F001010091C9
:101AB000C16941F08051C161C06900F0805000905F
:101AC0000448416821F0E06141F08061416008BD57
:101AD0000010024000000140002809DB00F01F0256
:101AE000012191404009800000F1E020C0F8001180
:101AF00070470000F0B40E4B1B680C46C3F3022382
:101B0000C3F10705042D00D90425191D072901D2A9
:101B1000002300E0DB1E012606FA05F1491E2140E4
:101B200099409E40761E16403143F0BC00F005BF40
:101B30000CED00E0064900F0070208684FF6FF03CD
:101B4000184040EA0220034A104308607047000032
:101B50000CED00E00000FA0510B529A401461DCCEB
:101B600086B08DE81D002AA02A4C00680490002051
:101B7000012923D002293AD010291DD16168226899
:101B8000D20119D5C1F38342C9031DF8020009D55A
:101B9000616804AAC1F34041515C1F4AB2FBF1F1F4
:101BA000484301E01D4948436168490204D44000AC
:101BB0005FF00301B0FBF1F006B010BD226AC2F382
:101BC0000121012903D1920701D5C803F4E70229B5
:101BD00005D1626A920702D549F64040ECE7032935
:101BE000EAD121688903E7D54FF22440E4E700F009
:101BF00033F96168C1F38131491C4900DAE700001B
:101C000002030405060708090A0B0C0D0E0F10103D
:101C1000010200000010024000127A0000093D009D
:101C20002DE9F84305460078354CC00754D0E069EB
:101C30000026C00008D4E06940F08050E061E0690F
:101C4000012600F0805000902E480168C90512D48A
:101C50000168804641F480710160FFF7DFFE0746AE
:101C600005E000BFFFF7DAFEC01B642823D8D8F8D0
:101C70000000C005F6D5206A10F4407021D0A98874
:101C800001F4407181421CD0206A1F49012220F4D6
:101C900040700A6000220A602062C00711D0FFF77E
:101CA000BDFE074641F2883808E000BFFFF7B6FEE8
:101CB000C11B414502D90320BDE8F883206A800793
:101CC000F4D5206A696820F44070084320621EB190
:101CD000E06920F08050E0612878800705D56068D1
:101CE000A96820F44040084360602878C00605D504
:101CF0006068E96820F48000084360600020DBE74A
:101D00000010024000700040400442422DE9F047BC
:101D10000F46050061D0434E306800F00700B8421E
:101D200009D2306820F0070038433060306800F096
:101D30000700B84251D128683B4C810712D54007B3
:101D400003D5606840F4E06060602878000703D540
:101D5000606840F4605060606068A96820F0F0003E
:101D6000084360602878C00728D06868012810D030
:101D70002168022810D0890700292EDA616821F035
:101D8000030101436160FFF749FE804641F2883953
:101D90000DE021688903EFE78901EDE7FFF73EFEDB
:101DA000A0EB0801494502D90320BDE8F08760682F
:101DB000696800F00C00B0EB810FEFD1306800F0E3
:101DC0000700B8420BD9306820F007003843306074
:101DD000306800F00700B84201D00120E5E728781C
:101DE000400705D56068E96820F4E060084360605A
:101DF0002878000706D56068296920F4605040EA19
:101E0000C100606000F038F86168084AC1F303114E
:101E1000515CC8400649086006480068FFF71EFE8E
:101E20000020C2E70020024000100240342F0008CA
:101E30000C0000200400002004480549006849689F
:101E4000044AC1F30221515CC84070470C000020D5
:101E500000100240442F0008044805490068496802
:101E6000044AC1F3C221515CC84070470C000020F5
:101E700000100240442F000812A185B00FC98DE860
:101E80000F0014A0144A006804905168134801F030
:101E90000C03042B10D0082B0ED1C1F38343C903CC
:101EA0001DF803000AD5516804AAC1F34041515CF2
:101EB0000A4A5043B0FBF1F005B070470849484367
:101EC000FAE7000002030405060708090A0B0C0DD7
:101ED0000E0F1010010200000010024000127A00E4
:101EE00000093D002DE9F84F040070D02078C04D66
:101EF000C00749D06868C0F38100012807D068682E
:101F0000C0F38100022809D16868C00306D528689B
:101F1000800339D560680028E7D035E06068B0F507
:101F2000803F0BD010B1B0F5A02F11D0286820F45D
:101F300080302860286820F4802002E0286840F47F
:101F400080302860606890B1FFF768FD06460AE0BF
:101F5000286840F480202860F0E700BFFFF75EFDAE
:101F6000801B642873D828688003F7D50CE0FFF73E
:101F700055FD064605E000BFFFF750FD801B6428B5
:101F8000F0D828688003F7D420789A4E80074FF065
:101F900001094FF0000839D5686810F00C0F07D020
:101FA0006868C0F38100022809D16868C00306D4BC
:101FB0002868800714D52069012808D110E020691D
:101FC000B0B1C6F80090FFF729FD074605E00AE129
:101FD000FFF724FDC01B0228C4D828688007F7D566
:101FE0002868616920F0F80040EAC10028600DE02F
:101FF000C6F80080FFF712FD074604E0FFF70EFD6C
:10200000C01B022823D828688007F7D4207800074F
:102010002CD57948A169D9B1C0F80090FFF7FEFC32
:10202000074604E0FFF7FAFCC01B02280FD8686AD5
:102030008007F7D571484FF4FA510068B0FBF1F012
:10204000009000BF0098411E0091FAD20EE080E09F
:10205000C0F80080FFF7E2FC074604E0FFF7DEFC73
:10206000C01B022875D8686A8007F7D4207840071B
:1020700060D5E8690027C00008D4E86940F08050C6
:10208000E861E869012700F0805000905C48016831
:10209000C90513D40168834641F480710160FFF7DC
:1020A000BDFC824606E000BFFFF7B8FCA0EB0A00CB
:1020B00064284ED8DBF80000C005F5D5E06801289B
:1020C0000AD008B1052813D0286A20F00100286240
:1020D000286A20F0040002E0286A40F0010028622B
:1020E000E06841F2883B98B1FFF798FC82460BE02C
:1020F000286A40F004002862EEE700BFFFF78EFC7C
:10210000A0EB0A0159455AD8286A8007F6D50CE099
:10211000FFF784FC824605E0FFF780FCA0EB0A0194
:1021200059454CD8286A8007F6D41FB1E86920F0D9
:102130008050E861E06988B36968C1F381010229D0
:1021400044D00228C6F8608004D0FFF767FC04463C
:1021500038E034E0FFF762FC074604E0FFF75EFC7E
:10216000C01B02282BD828688001F7D4206AB0F55C
:10217000803F05D16868A16820F40030084368609A
:10218000D4E908010843696821F4741108436860C0
:10219000C6F86090FFF742FC044606E025E000BF69
:1021A000FFF73CFC001B022809D828688001F7D5FE
:1021B0001BE000BFFFF732FC001B022802D90320FE
:1021C000BDE8F88F28688001F4D40EE00128F7D02C
:1021D0006868226A00F48031914204D1616A00F497
:1021E0007010884201D00120EAE70020E8E70000F3
:1021F0000010024000004242800442420C000020D5
:102200000070004010B5401EB0F1807F01D3012066
:1022100010BD4FF0E02460610F21601700F08DFBCE
:102220000020A06107202061002010BD704770478A
:10223000F8B5026804461068D168536910F00F0FB2
:102240004FF0000554D003F0010601F490773743B6
:102250005FD0C20705D0CA0503D5226C42F0010247
:102260002264420705D5DA0703D0226C42F002024D
:102270002264820705D5DA0703D0226C42F00402FB
:102280002264020707D501F02002324303D0226CFA
:1022900042F008022264226C002A35D0800604D560
:1022A000880602D5204600F044FA20684069216C77
:1022B000C0F3801001F008010143204625D000F052
:1022C00020FA2068416949061BD5416921F0400187
:1022D0004161A06BA8B158494163A06BFFF760FA58
:1022E000002811D0A06B416B01B0BDE8F040084759
:1022F00083060ED58B060CD52046BDE8F84000F0CD
:1023000018BA2046FFF793FFF8BDFFF790FF25644A
:10231000F8BD266B2023012E52D1C60650D5CE061D
:102320004ED5106850680090506940062AD5A16BC0
:10233000086840680004000CEAD0A68D8642E7D900
:10234000E0858869202818D0D06820F48070D0609B
:102350002068416921F0010141612068416921F053
:102360004001416184F83E3025632068C16821F056
:102370001001C160A06BFFF7EFF9A08DE18D401A4D
:1023800081B219E0A08DE18D401A81B2E08D002864
:10239000BED00029BCD0D06820F49070D0602068F6
:1023A000426922F00102426184F83E3025632068D0
:1023B000C26822F01002C2602046FFF737FFF8BD66
:1023C00005062BD50D0629D594F83D002128F6D118
:1023D000A068B0F5805F01D12069B0B1206A411CCE
:1023E0002162216800784860E08C401E0004000CE7
:1023F000E084E4D12068C16821F08001C1602068D8
:10240000C16841F04001C160F8BD206A0088C0F396
:1024100008005060206A801C2062E5E74006F3D582
:102420004806F1D5D168204621F04001D16084F8FA
:102430003D3000F0D0F8F8BDF326000870B5040078
:1024400004D094F83D00002510B106E0012070BDD5
:1024500084F83C50204600F023F8242084F83D0006
:102460002068C16821F40051C160204600F0BCF929
:102470002068016921F4904101612068416921F0DF
:102480002A0141612068C16841F40051C16025649E
:10249000202084F83D0084F83E00002070BD00003C
:1024A00030B585B000240094019402940394006830
:1024B000184988422CD11848816941F480418161D2
:1024C000816901F480410491816941F004018161D5
:1024D0008069124D00F0040004904FF400700090E9
:1024E000022001900320039069462846FFF7B6F9C1
:1024F0002815CDE90004694628460294FFF7AEF995
:10250000002211462520FFF7F5FA2520FFF7E4FA0F
:1025100005B030BD00380140001002400008014005
:10252000704700002DE9F843044690F83D001F462F
:1025300016460D4620284CD1C5B1BEB194F83C00DA
:10254000012846D0012084F83C004FF00008C4F870
:102550004080212084F83D00FFF760FAA684814680
:10256000E684A068B0F5805F03D004E00120BDE8F8
:10257000F883206928B12E465FF0000584F83C807E
:102580000EE00026FAE78021204600F089F9A0B984
:10259000AEB116F8010B21684860E08C401EE08463
:1025A000E08C4B464FF0000200970028EBD14FF033
:1025B0004001204600F074F930B10320D7E735F828
:1025C000020BC0F30800E6E7202084F83D0000205D
:1025D000CDE70220CBE77047FEE700003EB50024C0
:1025E00010480094019402940D49846001600473C2
:1025F0000475012505614FF460214460C161FEF757
:10260000D9FE08B1FEF751FE0095CDE901546946A7
:102610000448FEF74DFE002801D0FEF746FE3EBD01
:102620000024014010000020054808B5816941F0F0
:1026300004018161806900F00400009008BD000081
:10264000001002400C4810B50A4901604FF4964151
:102650004160002181600C22C160C0E904128161E7
:10266000C161FFF7EBFE002803D0BDE81040FEF784
:102670001CBE10BD0038014040000020FEE7FEE710
:1026800070477047FFF7D0B930B593B0282168463E
:10269000FDF7EEFD14210AA8FDF7EAFD0024012054
:1026A0000F94022504900095102011940590109429
:1026B000129407946846FFF715FC08B172B6FEE75E
:1026C0000F20CDE90A040C940D9400210AA80E9461
:1026D000FFF71CFB08B172B6FEE70FA80F95119427
:1026E000FFF79EFA002801D072B6FEE713B030BDA6
:1026F000704710B5406A0021C185C184FFF797FD7E
:1027000010BD0168CA6822F49072CA6001684A6903
:1027100022F001024A61016B012904D10168CA68F3
:1027200022F01002CA60202180F83E1000210163CF
:10273000704708B590F83E10222901D0022008BD4C
:1027400082684FF480539A4201D1016921B1816AB4
:102750009A421BD04AB10AE00268816A5268C2F309
:1027600008020A80816A891C08E0026972B1026865
:10277000526802F07F020A70816A491C8162C18D31
:10278000491E0904090CC18503D019E0026852688A
:10279000F1E70168CA6822F02002CA600168CA68CD
:1027A00022F48072CA6001684A6922F001024A611B
:1027B000202180F83E10016B012903D0FFF7B0FE05
:1027C000002008BD002101630168CA6822F01002E0
:1027D000CA6001680A68D20602D50A684968009191
:1027E000818DFFF723FDEBE770B5044600680169B2
:1027F000E26821F44051114301612169A068084356
:10280000616908432168CA6841F20C639A43024334
:10281000CA6020684169A26921F440711143416195
:102820001E492068884202D1FFF716FB01E0FFF73E
:1028300003FB00EBC00101EB001260686421800023
:10284000B2FBF0F3B3FBF1F36FF018067343B2FB86
:10285000F0F5B2FBF0F605EB8305322303EB05152B
:10286000B5FBF1F5B6FBF1F605F0F00505EB061545
:10287000B2FBF0F6B2FBF0F0B0FBF1F06FF0180233
:10288000504306EB800003EB0010B0FBF1F0216831
:1028900000F00F002844886070BD0000003801403F
:1028A0002DE9F041984617460E460446069D1DE068
:1028B000681C1BD02DB1FFF7B1F8A0EB0800A842AF
:1028C00014D92068C16821F4D071C16020684169C1
:1028D00021F001014161202084F83D0084F83E0090
:1028E000002084F83C000320BDE8F08120680068E7
:1028F00036EA000004D00020B842D9D00020F3E727
:102900000120F9E70148FFF793BC000040000020D8
:10291000FEE7490050EAC12018BF04204A0D18BF45
:1029200040F0010040F2FF72B2EB515F08BF40F08F
:102930000200012808BF052070470907090E00287A
:1029400004DB00F1E02080F80014704700F00F0075
:1029500000F1E02080F8141D7047000088B00025C9
:10296000009501950295FFF767F80124CDE901452F
:10297000FFF78AFEFFF758FEFFF730FEFFF762FE13
:102980004FF47A75694619480094FEF791FC174890
:10299000FEF768FE0A211548FEF7C6FD1348FEF74C
:1029A00005FD06461148FEF7BDFE3046FEF74EFC1B
:1029B00000F048F802460B460DA103A8FDF710FCF5
:1029C0000A230C220BA10F48FFF7ACFD0A230522B6
:1029D00003A90C48FFF7A6FD0A2302220AA1094811
:1029E000FFF7A0FD2846FEF727FFCBE710000020E9
:1029F0002566000074656D70657261747572653A64
:102A000000000000400000200A0D000010B5002961
:102A10000AD00878002807D005487844FDF7A8FFB9
:102A2000002801D0002010BD0248784410BD0000ED
:102A3000E6050000DE0500000808A0F500114FEAD9
:102A40003101704743004FEAD30C4FEA3C0C43403E
:102A50001FBF40070CF1605113F0FE4F70471CF090
:102A6000006F03D100200CF0004170470CF00043D0
:102A700043EA507010B540EACC0000F046F900BFC0
:102A8000000000924FEA0001FFF7D6BF4FF000416F
:102A90004FF00000A1F500217047000090EA010FFF
:102AA00048BF81F0004100F18281421A3CBF801A88
:102AB00089184FEAD0524FF07F4C1CEA410FA2EB2D
:102AC000D15318BF9CEA026F00F03B804FF0004CDE
:102AD0004CEA00204CEA012121FA03FC10EB0C0C1B
:102AE0001ED202F1FF325FEA1C2040EBC25038BF19
:102AF00070471CF07F0F4FEA400C18BFBCF17F4FAE
:102B000038BF7047C3F12003994008BF20F001008F
:102B1000BCF17F4F38BF7047A0F1C04000F03BB917
:102B20004FEA3C00000A40EBC25028BF1CF0FF0FE8
:102B30004FEA400CE6D018BFBCF17F4F38BF70475A
:102B4000EAE79CEA026F05D010EA5C0F08BF00F0CC
:102B50000040704710B500F0D8F800BF64FBBE3EDF
:102B60004FF47F0C1CEAD0121EBF1CEAD11392EA6C
:102B70000C0F93EA0C0F00F0858090EA010F48BF1C
:102B800042F4807240F4000C41F400002CF07F41CC
:102B900020F07F4000B58142A2EB03020FF2081C37
:102BA000ACEB504EC0F100009EF800E04FEA4E0E34
:102BB00000FB0EFC38BF49004FEA2C1C02F5FA025C
:102BC0000CFB0EF34FEACE1E4FEA112C4FEAC12147
:102BD0000EEB635E42EB22420EFB0CFC4FEA1C53F1
:102BE00000FB03114FEA112C4FEA01310EFB0CFCE4
:102BF0004FEADC4C00FB0C11C14228BF09184CEB1A
:102C000003335DF804EB10EB410143EBC250B2F526
:102C10007C0F38BF704729D512F0F00F1CBF00F1B0
:102C2000C04000F000407047008182838485868721
:102C300088898B8C8D8E8F919293959697999A9C7B
:102C40009D9FA0A2A3A5A7A8AAACAEB0B2B3B5B7EA
:102C5000B9BCBEC0C2C5C7C9CCCED1D4D7D9DCDFC0
:102C6000E2E6E9ECF0F3F7FAFE0000004FEA400C70
:102C70000CF1807CBCF17E4F28BF7047B0F1C040A2
:102C800000F089B890EA010F0CEAD11348BF42F472
:102C90008072624538BF634507D213F47F0F16D0A8
:102CA00080EA010000F00040704710B500F02DF8F8
:102CB000097EFC3E00F005B880EA010000F000400B
:102CC000704780EA010000F0004000F064B812F4A0
:102CD0007F0F04BF0248704780EA010000F05BB834
:102CE0000000C07FB0FA80F310FA03F2C3F19D0335
:102CF0000AD0D90501EB1220530638BF704700F106
:102D0000010008BF20F0010070470EF1020E2EF006
:102D1000030E5EF8044B244204D44FEA4102B2F1A0
:102D20007F4F11D84FEA4003B3F17F4F0CD80ED13B
:102D30004FEAD07CB2F17F4F0CEB4C0C0CF1020C43
:102D400008BF4CEBD17C04E04FF0080C01E04FEAE7
:102D5000D17C0CEB4C0324FA03F404F00704B4F127
:102D6000040C06D20EEB840CBDE810404CF0010CB4
:102D70006047DFE80CF0070802024FF00040A0F5C2
:102D8000800010BD0846420018BFD2F1807288BF93
:102D900000F0004010BDFF2141EAD050C00570474F
:102DA00090EA010F48BF81F000413FF57EAE421A24
:102DB00004D882F00042A0EB020011444FEAD05246
:102DC0004FF07F4C1CEA410FA2EBD15318BF9CEA95
:102DD000026F4AD04FF0004C4CEA00204CEA01212F
:102DE00021FA03FCB0EB0C0C0FD412F0FE0F36D01E
:102DF0005FEA4C001DD5001240EBC25038BF70474F
:102E00001CF03F0F18BF70470BE0A2F101025FEA10
:102E10001C2040EBC25038BF70471CF07F0F18BF1A
:102E20007047C3F12003994014BF401E20F00100F9
:102E3000704780084FEA122308BF7047B0FA80FC41
:102E4000A2EB0C02CCF1280C60FA0CF093EA122FE2
:102E500004BF00EBC25070474FEAC3707047130ABB
:102E60005FEADC1008BF7047F6E79CEA026F04D007
:102E700010EA5C0F08BF0020704710B5FFF745FF50
:102E800040DFF63E81F000407047FDF7F2BA0000E7
:102E90006A0C0000430C00001B0C0000F30B000048
:102EA000C90B00009F0B0000740B0000480B0000D2
:102EB0001C0B0000EF0A0000C20A0000940A000088
:102EC000660A0000370A0000090A0000D90900005C
:102ED000AA0900007B0900004B0900001B09000043
:102EE000EC080000BC0800008D0800005D08000030
:102EF0002E08000000080000D1070000A307000012
:102F000075070000480700001B070000EF060000DF
:102F1000C3060000980600006D060000430600008E
:102F20001A060000F2050000CA050000A205000014
:102F30007C05000000000000000000000102030406
:102F40000607080900000000010203040240000017
:102F5000000000A00000000005400000000000C8C4
:102F6000000000000C4000000000409C0000000039
:102F7000194000000020BCBE0000000034400000EA
:102F8000BFC91B8E00000004B5400000504BCFD0DD
:102F90006607E2CF010000006C4100003E8251AAAA
:102FA000DFEEA73401000000D9420000DCB5A0E24A
:102FB0003A301F97FFFFFFFFB4450000FD25A0C872
:102FC000E9A3C14FFFFFFFFFFF3F000000000080AB
:102FD00000000000FF3F0000000000800000000033
:102FE0001C3000080000002010000000280100082C
:102FF0002C30000810000020D80600004401000812
:103000001C00000043000000F8FFFFFF0C00000060
:103010000E0000000F0000002E0000000100000064
:0C30200010000000000000000024F4007C
:04000005080000ED02
:00000001FF
