:020000040800F2
:10000000C806002099010008C7190008CD1800088B
:10001000C51900080F060008751E00080000000042
:10002000000000000000000000000000DF1B0008CE
:100030001106000800000000C9190008E11B0008B3
:10004000B3010008B3010008B3010008B3010008C0
:10005000B3010008B3010008B3010008B3010008B0
:10006000B3010008B3010008B3010008B3010008A0
:10007000B3010008B3010008B3010008B301000890
:10008000B3010008B3010008B3010008B301000880
:10009000B3010008B3010008B3010008130600080B
:1000A000B3010008B3010008B3010008B301000860
:1000B000B3010008B301000800000000B30100080C
:1000C000B30100080000000000000000B3010008B8
:1000D00000000000691E0008B301000800000000D5
:1000E000B3010008B3010008B301000800F002F8F2
:1000F00000F042F80AA090E8000C82448344AAF180
:100100000107DA4501D100F037F8AFF2090EBAE87D
:100110000F0013F0010F18BFFB1A43F0010318473B
:100120001C1F00003C1F0000103A24BF78C878C193
:10013000FAD8520724BF30C830C144BF04680C60ED
:10014000704700000023002400250026103A28BF35
:1001500078C1FBD8520728BF30C148BF0B60704739
:10016000642900F07580782900F0AE800020704787
:100170001FB51FBD10B510BD00F00FFA1146FFF7F7
:10018000F7FF01F08FFE00F02DFA03B4FFF7F2FF46
:1001900003BC00F035FA00000948804709480047D1
:1001A000FEE7FEE7FEE7FEE7FEE7FEE7FEE7FEE727
:1001B000FEE7FEE704480549054A064B7047000084
:1001C000531C0008ED000008C8000020C8060020ED
:1001D000C8020020C80200200FB41CB5074B06AAB5
:1001E0007B4469460090059800F0BFF900206946FD
:1001F00000F0CEF91CBC5DF814FB0000AD0300005C
:1002000070B5044685690068C10601D5302600E056
:100210002026C00707D070BDD4E9012130469047A1
:10022000206A401C20626D1EF6D570BD70B5044674
:1002300085690078C00707D170BDD4E9012120206D
:100240009047206A401C20626D1EF6D570BD0000EC
:100250002DE9F0410646002410687529314616A59F
:1002600010D0AFF30080002802DA404213A507E067
:1002700031688A0701D512A502E0490704D511A506
:10028000012401E0AFF3008000210A2206F12407D7
:1002900009E0B0FBF2FCB0FBF2F302FB1C003030D3
:1002A00078541846491C0028F3D123462A46304684
:1002B000BDE8F04100F0FAB8000000002D00000099
:1002C0002B0000002000000070B504460D462146BA
:1002D0001068AFF300802188090502D50F4A7A44DF
:1002E00002E00E4A7A440E32002104F1240305E0B4
:1002F00000F00F060009965D5E54491C0028F7D1F6
:1003000020780023000704D5702D02D009B1022304
:1003100011322046BDE8704000F0C8B81E1D000034
:100320002DE9F05F894604464FF0000ADFF824B15A
:10033000FB44C0F820A02046E168884700287DD013
:10034000252806D0D4E901219047206A401C20626C
:10035000F1E700255F462046E168884720280646E9
:1003600007DB312E05D2B81910F8200C08B105436F
:10037000F1E7A80701D525F00405C4F81CA0002763
:10038000C4F818A02A2E09D0304601F084FD38B3F5
:1003900004EB8708303EC8F8186019E059F8041BD0
:1003A000204604EB87029161E1688847012F0646E9
:1003B00018D1E069002820DA25F020051DE0D8F8E2
:1003C000180000EB800006EB40003038C8F8180039
:1003D0002046E1688847064601F05DFD0028EED121
:1003E000012F0AD02E2E08D12046E16888477F1CB5
:1003F0000646022F45F02005C4DBA069002803DA79
:10040000404245F00105A061E80701D025F0100544
:10041000A6B1A6F14100192802D8203645F400659E
:100420004A463146204625604D46FFF799FE60B1A9
:10043000012807D0ED1D25F0070000E007E000F1DE
:10044000080978E705F1040975E730467AE7206A7C
:10045000BDE8F09FF41C00004FF0000200B5134609
:1004600094469646203922BFA0E80C50A0E80C50D4
:10047000B1F12001BFF4F7AF090728BFA0E80C5085
:1004800048BF0CC05DF804EB890028BF40F8042B7E
:1004900008BF704748BF20F8022B11F0804F18BFEB
:1004A00000F8012B70477047704770472DE9F047FF
:1004B0000D4699469246044600F1240801688806D4
:1004C00004D5E06921F01001216000E00120A8427C
:1004D00001DD471B00E00027A1697A1902EB090042
:1004E000081AA0612078C00602D42046FFF788FED3
:1004F000002608E0D4E901211AF806009047206A96
:10050000401C761C20624E45F4DB2078C0060AD5DC
:100510002046FFF775FE06E0D4E901213020904720
:10052000206A401C2062381EA7F10107F4DC07E0B6
:10053000D4E9012118F805009047206A401C206288
:10054000281EA5F10105F3DC2046FFF76FFE207899
:10055000000602D50220BDE8F0870120FBE700007D
:1005600001694A1C02610878704700B58FB0CDE977
:1005700001310021059105497944CDE90310114667
:100580006846FFF7CDFE0FB000BD0000E5FFFFFF9E
:100590000A6802F8010B0A607047754600F02CF8F3
:1005A000AE4605006946534620F00700854618B060
:1005B00020B5FFF7FFFDBDE820404FF000064FF0EB
:1005C00000074FF000084FF0000B21F00701AC4688
:1005D000ACE8C009ACE8C009ACE8C009ACE8C009A7
:1005E0008D46704710B50446AFF300802046BDE845
:1005F0001040FFF7CABD00000048704768000020A7
:1006000001491820ABBEFEE7260002007047FEE756
:100610007047202000F0B0B872B6FEE710B590F831
:1006200021100022022905D00421816380F82020B6
:10063000012010BD01680B6823F00E030B600168F8
:100640000B6823F001030B6090F84030C46B01216C
:1006500001FA03F3636080F8211080F8202010462F
:1006600010BD000010B590F821100024022903D01D
:100670000421816301243DE001680A6822F00E0232
:100680000A6001680A6822F001020A601A4A0168D9
:10069000914201D1012121E0174A1432914201D146
:1006A00010211BE0144A2832914201D1891515E02E
:1006B000114A3C32914201D189140FE00E4A503266
:1006C000914202D14FF4803108E00B4A64329142EA
:1006D00002D14FF4801101E04FF08071064A083AD0
:1006E0005160012180F82110002180F82010416B19
:1006F00001B18847204610BD0800024070B504468D
:1007000000F02CF90546601C02D00448007804442F
:1007100000F024F9401BA042FAD370BD0000002075
:100720001CB5202823D116208DF8030005248DF850
:10073000014014208DF802008DF800400022694627
:100740000B4800F003FE8DF8044020208DF80500D2
:1007500000208DF80600012201A9054800F058FE8E
:10076000044C2021204600F0F3F80028F9D01CBDED
:100770001000002000080140044910B50A68024238
:1007800002D00860FFF7CCFF10BD00001404014048
:100790002DE9F84FDFF89C91002409F1040A0AF1D1
:1007A000040B23460F270BF1040EBBE00125A540E7
:1007B0002A40AA4276D1DFF880C14E68A6EB0C0829
:1007C00066452BD00DDC032E34D005DC36B3012E6C
:1007D00019D0022E2FD11BE0112E16D0122E2AD1A5
:1007E00019E0B8F5881F19D006DCB8F5803F15D0A0
:1007F000B8F5801F1FD111E0B8F5001F0ED0B8F575
:10080000041F18D10AE0CB6815E0CB681B1D12E06D
:10081000CB6808330FE0CB680C330CE08B682BB14E
:10082000012B4FF0080303D0456104E0042302E0EC
:10083000056100E00023FF2A01D8064601E000F12F
:1008400004064FEA840501D9A5F12005D6F80080F9
:1008500007FA05FC28EA0C0803FA05F548EA05083A
:10086000C6F800804D68ED005BD5344DAE6946F0AA
:100870000106AE61AD6924F0030605F0010500959F
:100880002F4D06EB050CDCF80850A607360F07FACB
:1008900006F825EA0805DFF8AC80404503D14FF0A3
:1008A000000810E03DE0DFF8A080404502D14FF0A5
:1008B000010808E0DFF89480404502D14FF00208BB
:1008C00001E04FF0030808FA06F848EA0508CCF8FA
:1008D00008804D68D9F80060ED034D4601D51643F8
:1008E00000E096432E604D68DAF80060AD0355468F
:1008F00001D5164300E096432E604D68DBF800609A
:10090000ED025D4601D5164300E096432E604D682A
:10091000DEF80060AD02754601D5164300E096434F
:100920002E60641C0A6832FA04F57FF43FAFBDE81C
:10093000F88F000000040140000011100010024078
:100940000000014000080140000C0140001001407F
:100950008068084000D0012070470000014880688E
:1009600070470000000000200248816802781144AE
:100970008160704700000020074810B5016841F011
:1009800010010160032000F075F80F2000F006F858
:1009900000F024F8002010BD0020024070B50D4D7D
:1009A00004464FF47A712878B1FBF0F00A490968DF
:1009B000B1FBF0F000F09FFD48B9102C07D20022E7
:1009C0002146501E00F036F800206C6070BD0120FA
:1009D00070BD0000000000200C0000200C4808B58D
:1009E000816941F001018161816901F0010100919A
:1009F000C16941F08051C161C06900F08050009030
:100A00000448416821F0E06141F08061416008BD27
:100A10000010024000000140002809DB00F01F0226
:100A2000012191404009800000F1E020C0F8001150
:100A300070470000F0B40E4B1B680C46C3F3022352
:100A4000C3F10705042D00D90425191D072901D27A
:100A5000002300E0DB1E012606FA05F1491E2140B5
:100A600099409E40761E16403143F0BC01F003BA17
:100A70000CED00E0064900F0070208684FF6FF039E
:100A8000184040EA0220034A104308607047000003
:100A90000CED00E00000FA050149012008627047F2
:100AA00000000E4210B529A401461DCC86B08DE889
:100AB0001D002AA02A4C006804900020012923D0A0
:100AC00002293AD010291DD161682268D20119D5B6
:100AD000C1F38342C9031DF8020009D5616804AA65
:100AE000C1F34041515C1F4AB2FBF1F1484301E0C0
:100AF0001D4948436168490204D440005FF0030186
:100B0000B0FBF1F006B010BD226AC2F30121012949
:100B100003D1920701D5C803F4E7022905D1626A1F
:100B2000920702D549F64040ECE70329EAD1216853
:100B30008903E7D54FF22440E4E700F033F9616818
:100B4000C1F38131491C4900DAE7000002030405C2
:100B5000060708090A0B0C0D0E0F10100102000009
:100B60000010024000127A0000093D002DE9F84310
:100B700005460078354CC00754D0E0690026C00017
:100B800008D4E06940F08050E061E069012600F09F
:100B9000805000902E480168C90512D40168804633
:100BA00041F480710160FFF7D9FE074605E000BF00
:100BB000FFF7D4FEC01B642823D8D8F80000C00576
:100BC000F6D5206A10F4407021D0A98801F4407154
:100BD00081421CD0206A1F49012220F440700A6023
:100BE00000220A602062C00711D0FFF7B7FE074657
:100BF00041F2883808E000BFFFF7B0FEC11B414555
:100C000002D90320BDE8F883206A8007F4D5206A62
:100C1000696820F44070084320621EB1E06920F04A
:100C20008050E0612878800705D56068A96820F4C5
:100C30004040084360602878C00605D56068E968D0
:100C400020F48000084360600020DBE700100240D1
:100C500000700040400442422DE9F0470F46050075
:100C600061D0434E306800F00700B84209D23068C6
:100C700020F0070038433060306800F00700B842C9
:100C800051D128683B4C810712D5400703D56068D5
:100C900040F4E06060602878000703D5606840F4A5
:100CA000605060606068A96820F0F00008436060F0
:100CB0002878C00728D06868012810D02168022849
:100CC00010D0890700292EDA616821F00301014361
:100CD0006160FFF743FE804641F288390DE02168EC
:100CE0008903EFE78901EDE7FFF738FEA0EB080184
:100CF000494502D90320BDE8F0876068696800F0C3
:100D00000C00B0EB810FEFD1306800F00700B84263
:100D10000BD9306820F0070038433060306800F0AD
:100D20000700B84201D00120E5E72878400705D543
:100D30006068E96820F4E060084360602878000794
:100D400006D56068296920F4605040EAC1006060FF
:100D500000F038F86168084AC1F30311515CC840DB
:100D60000649086006480068FFF718FE0020C2E741
:100D70000020024000100240E81F00080C00002084
:100D8000040000200448054900684968044AC1F38A
:100D90000221515CC84070470C0000200010024046
:100DA000F81F00080448054900684968044AC1F36F
:100DB000C221515CC84070470C0000200010024066
:100DC000F81F000812A185B00FC98DE80F0014A00C
:100DD000144A006804905168134801F00C03042B76
:100DE00010D0082B0ED1C1F38343C9031DF80300B3
:100DF0000AD5516804AAC1F34041515C0A4A5043E4
:100E0000B0FBF1F005B0704708494843FAE700002D
:100E100002030405060708090A0B0C0D0E0F10103B
:100E2000010200000010024000127A0000093D009B
:100E30002DE9F84F040070D02078C04DC00749D08C
:100E40006868C0F38100012807D06868C0F381009A
:100E5000022809D16868C00306D52868800339D5FF
:100E600060680028E7D035E06068B0F5803F0BD0BF
:100E700010B1B0F5A02F11D0286820F48030286080
:100E8000286820F4802002E0286840F48030286040
:100E9000606890B1FFF762FD06460AE0286840F4FA
:100EA00080202860F0E700BFFFF758FD801B642812
:100EB00073D828688003F7D50CE0FFF74FFD06468E
:100EC00005E000BFFFF74AFD801B6428F0D82868C2
:100ED0008003F7D420789A4E80074FF001094FF035
:100EE000000839D5686810F00C0F07D06868C0F3A7
:100EF0008100022809D16868C00306D428688007E9
:100F000014D52069012808D110E02069B0B1C6F8D5
:100F10000090FFF723FD074605E00AE1FFF71EFDFD
:100F2000C01B0228C4D828688007F7D528686169E3
:100F300020F0F80040EAC10028600DE0C6F800800B
:100F4000FFF70CFD074604E0FFF708FDC01B022871
:100F500023D828688007F7D4207800072CD5794853
:100F6000A169D9B1C0F80090FFF7F8FC074604E08A
:100F7000FFF7F4FCC01B02280FD8686A8007F7D57A
:100F800071484FF4FA510068B0FBF1F0009000BFD7
:100F90000098411E0091FAD20EE080E0C0F8008077
:100FA000FFF7DCFC074604E0FFF7D8FCC01B022873
:100FB00075D8686A8007F7D42078400760D5E8695B
:100FC0000027C00008D4E86940F08050E861E86973
:100FD000012700F0805000905C480168C90513D4D7
:100FE0000168834641F480710160FFF7B7FC8246D7
:100FF00006E000BFFFF7B2FCA0EB0A0064284ED861
:10100000DBF80000C005F5D5E06801280AD008B17A
:10101000052813D0286A20F001002862286A20F0F1
:10102000040002E0286A40F001002862E06841F212
:10103000883B98B1FFF792FC82460BE0286A40F0AB
:1010400004002862EEE700BFFFF788FCA0EB0A016E
:1010500059455AD8286A8007F6D50CE0FFF77EFC80
:10106000824605E0FFF77AFCA0EB0A0159454CD80F
:10107000286A8007F6D41FB1E86920F08050E86143
:10108000E06988B36968C1F38101022944D002286C
:10109000C6F8608004D0FFF761FC044638E034E015
:1010A000FFF75CFC074604E0FFF758FCC01B022872
:1010B0002BD828688001F7D4206AB0F5803F05D18D
:1010C0006868A16820F4003008436860D4E908012A
:1010D0000843696821F4741108436860C6F8609099
:1010E000FFF73CFC044606E025E000BFFFF736FCB6
:1010F000001B022809D828688001F7D51BE000BF33
:10110000FFF72CFC001B022802D90320BDE8F88F52
:1011100028688001F4D40EE00128F7D06868226ABC
:1011200000F48031914204D1616A00F47010884269
:1011300001D00120EAE70020E8E7000000100240AB
:1011400000004242800442420C0000200070004037
:10115000F8B505004FF0000016460C46009006D08A
:101160002CB100226946284600F019F808B1012088
:10117000F8BD287B2070E87BE070697B6170A97BFB
:10118000A17056B100F02AFCE070607800F026FCF7
:101190006070A07800F022FCA0700020F8BD2DE95E
:1011A000F04791460C465FEA00084AD084B3D8F86D
:1011B00000004068400744D4404600F0ADFC4FF4C6
:1011C00061620546B0FBF2F1B0FBF2F302FB135093
:1011D0003C23B0FBF3F0B5FBF2F6607002FB165057
:1011E000B0FBF3F203FB1200A070182931D31820D2
:1011F000B1FBF0F7B1FBF0F200FB1210207040469B
:1012000000F083FC411C04D0A84202D9461B02E036
:1012100017E04FF0FF36A7EB071000EB4000C0EBE4
:10122000001005EBC0152946404600F0C4FC40B94B
:10123000701C01D0711900E03146404600F0A7FC57
:1012400010B10120BDE8F0873946404600F0D1FBDF
:1012500000E02170B9F1000F0BD0207800F0BEFB48
:101260002070607800F0BAFB6070A07800F0B6FBE8
:10127000A0700020E6E7000070B5040003D0607C99
:10128000002610B105E0012070BD2674204600F054
:1012900043F802206074204600F010F9042578BB62
:1012A000204600F0FDFB58BB2068416821F0070193
:1012B0004160A06820B11748016821F00101016078
:1012C0001448001F0168A26821F460711143016095
:1012D0006068411C04D10120FFF7E4FB80B1401E8F
:1012E00021688A6822F00F0242EA10428A6021686F
:1012F000CA6860F30F02CA60204600F0EBFB08B139
:101300006574C0E7E67301206073A0736074002009
:1013100070BD0000306C004008B500680849884284
:101320000DD1FFF7B9FB0748C16941F00061C16108
:10133000C069054900F0006000900120086008BD08
:1013400000280040001002403C0442422DE9F041D8
:101350000D4604003BD0C5B3207C01283AD04FF0A5
:10136000010884F8108002206074E87872B300F0FD
:101370002CFBE073687800F028FB6073A87800F01D
:1013800024FBA073C2B2617BE07B00F0D5FB20732D
:101390002870204600F0C0FB4FF46161B0FBF1F112
:1013A000002518292DD91822B1FBF2F1A1EB01116A
:1013B00001EB4101C1EB011100EBC11631462046A2
:1013C00000F0F9FB0427C8B90BE000E004E00120BD
:1013D000BDE8F0810220FBE7E07368786073A878CD
:1013E000CFE7204600F091FB411C0AD0B04208D262
:1013F00006490144204600F0CAFB10B16774257409
:10140000E5E784F8118025740020E1E780510100B0
:101410002DE9F0410D46040024D01DB3207C0128A5
:1014200023D04FF0010884F81080022060742878DF
:10143000EAB100F0CAFA4FF4616100FB01F6687886
:1014400000F0C3FAC0EB001006EB8006A87800F0AD
:10145000BCFA35182946204600F0ADFB00260427CB
:1014600010BB0FE00120BDE8F0810220FBE74FF444
:10147000616148436978C1EB011100EB8100A978F3
:101480004518E7E72068416821F0050141602046E2
:1014900000F03BFB411C0AD0A84208D20649014497
:1014A000204600F074FB10B167742674DAE784F804
:1014B000118026740020D6E78051010070B5040029
:1014C0000AD02068416821F008014160FFF746FA20
:1014D00005464FF47A7608E0012070BDFFF73EFA2A
:1014E000401BB04201D9032070BD2068406800074E
:1014F000F4D5002070BD10B5401EB0F1807F01D33F
:10150000012010BD4FF0E02460610F21601700F052
:10151000B2FC0020A06107202061002010BD7047B0
:1015200070470000F8B5026804461068D168536936
:1015300010F00F0F4FF0000554D003F0010601F436
:10154000907737435FD0C20705D0CA0503D5226C18
:1015500042F001022264420705D5DA0703D0226C6B
:1015600042F002022264820705D5DA0703D0226C1A
:1015700042F004022264020707D501F02002324340
:1015800003D0226C42F008022264226C002A35D07B
:10159000800604D5880602D5204600F07BFB206833
:1015A0004069216CC0F3801001F00801014320461E
:1015B00025D000F057FB2068416949061BD54169D9
:1015C00021F040014161A06BA8B158494163A06B73
:1015D000FFF748F8002811D0A06B416B01B0BDE8BF
:1015E000F040084783060ED58B060CD52046BDE893
:1015F000F84000F04FBB2046FFF792FFF8BDFFF721
:101600008FFF2564F8BD266B2023012E52D1C6061C
:1016100050D5CE064ED510685068009050694006EF
:101620002AD5A16B086840680004000CEAD0A68D9A
:101630008642E7D9E0858869202818D0D06820F450
:101640008070D0602068416921F00101416120680B
:10165000416921F04001416184F83E3025632068F2
:10166000C16821F01001C160A06BFEF7D7FFA08D0B
:10167000E18D401A81B219E0A08DE18D401A81B24E
:10168000E08D0028BED00029BCD0D06820F4907036
:10169000D0602068426922F00102426184F83E3045
:1016A00025632068C26822F01002C2602046FFF75E
:1016B00036FFF8BD05062BD50D0629D594F83D005B
:1016C0002128F6D1A068B0F5805F01D12069B0B1C2
:1016D000206A411C2162216800784860E08C401E2D
:1016E0000004000CE084E4D12068C16821F080018E
:1016F000C1602068C16841F04001C160F8BD206A46
:101700000088C0F308005060206A801C2062E5E772
:101710004006F3D54806F1D5D168204621F04001B6
:10172000D16084F83D3000F0D0F8F8BD551C0008B9
:1017300070B5040004D094F83D00002510B106E017
:10174000012070BD84F83C50204600F023F824208E
:1017500084F83D002068C16821F40051C160204632
:1017600000F0F4FA2068016921F4904101612068D9
:10177000416921F02A0141612068C16841F40051AA
:10178000C1602564202084F83D0084F83E000020DC
:1017900070BD000030B585B000240094019402941F
:1017A00003940068184988422CD11848816941F493
:1017B00080418161816901F480410491816941F036
:1017C000040181618069124D00F0040004904FF41F
:1017D0000070009002200190032003906946284683
:1017E000FEF7D6FF2815CDE9000469462846029485
:1017F000FEF7CEFF002211462520FFF71BF925201A
:10180000FFF70AF905B030BD003801400010024072
:1018100000080140704700002DE9F843044690F8A5
:101820003D001F4616460D4620284CD1C5B1BEB11D
:1018300094F83C00012846D0012084F83C004FF089
:101840000008C4F84080212084F83D00FFF786F8A6
:10185000A6848146E684A068B0F5805F03D004E0EA
:101860000120BDE8F883206928B12E465FF000050D
:1018700084F83C800EE00026FAE78021204600F044
:10188000C1FAA0B9AEB116F8010B21684860E08C2E
:10189000401EE084E08C4B464FF000020097002889
:1018A000EBD14FF04001204600F0ACFA30B10320FC
:1018B000D7E735F8020BC0F30800E6E7202084F8EC
:1018C0003D000020CDE70220CBE77047FEE7000097
:1018D00000B585B00020029003900D48816941F069
:1018E000040181618069694600F0040004902020B1
:1018F0000090084801900848FEF74AFF0022114670
:101900001720FFF797F81720FFF786F805B000BDFE
:101910000010024000002110000801407CB50025A5
:1019200019480195174900950160691E41604FF4FF
:1019300080718160FFF7A0FC08B1FEF76DFE052401
:101940008DF8044020268DF805608DF806500122A0
:1019500001A90D48FFF75CFD08B1FEF75DFE8DF8AB
:1019600000408DF801408DF8026022208DF80300C0
:10197000012269460448FFF7E9FC002801D0FEF780
:101980004BFE7CBD00280040100000200C4810B524
:101990000A4901604FF496414160002181600C22A8
:1019A000C160C0E904128161C161FFF7C1FE002876
:1019B00003D0BDE81040FEF72FBE10BD0038014037
:1019C00024000020FEE7FEE77047010901EB8101DA
:1019D00000F00F0000EB4100C0B27047002102E0B0
:1019E0000A38C0B2491C0A28FAD2090740EA116035
:1019F00070472DE9F04104460025C07B627BA37B44
:101A000042E0012A16D0032A14D0052A12D0072A50
:101A100010D0082A0ED00A2A0CD00C2A0AD0042A88
:101A200010D0062A0ED0092A0CD00B2A0AD0022A7E
:101A30000DD028E01F2B0CD30C2A05D10122134610
:101A4000401C20E01E2B04D30123521C1BE01C2B46
:101A500002D203F1010316E011D183B29E0710D127
:101A60006426B3FBF6F706FB173636B94FF4C87693
:101A7000B3FBF6F706FB17331BB91D2303E01D2B41
:101A800001D1032201236D1C8D42BAD3D1B2E07380
:101A90006173DAB2A27300F04FF82073BDE8F081F1
:101AA00070B50446FEF75AFF05464FF47A7606E015
:101AB000FEF754FF401BB04201D9032070BD2068DF
:101AC00040688006F4D52068416841F0100141600B
:101AD000002070BD70B504460068416821F0100117
:101AE0004160FEF73BFF05464FF47A7607E000BF02
:101AF000FEF734FF401BB04201D9032070BD2068BF
:101B000040688006F4D5002070BD0168086A496A03
:101B100089B241EA00407047006881698AB2C169B0
:101B20008BB2816989B28A4203D0C06961F31F40D8
:101B3000704743EA02407047F0B56424C1EBC1032B
:101B40000927A500072603EB01130329B3FBF7F1CF
:101B500000F5FA60114401440AD2401EB0FBF4F2D1
:101B600001EB9001B0FBF5F0891A0844001D08E074
:101B7000B0FBF4F201EB9001B0FBF5F0891A0844D8
:101B8000801CB0FBF6F106FB1100C0B2F0BD70B5D1
:101B90000D4606460024FFF783FF48B93168280C3C
:101BA00008623168A8B248623046FFF793FF00B17F
:101BB0000124204670BD70B50D4606460024FFF78F
:101BC0006FFF48B93168280C88613168A8B2C861D4
:101BD0003046FFF77FFF00B10124204670BD7047FB
:101BE000FEF7C2BE30B593B028216846FEF734FC3C
:101BF00014210AA8FEF730FC002401250F940A20C6
:101C00000090102010941194CDE90450CDE90654B1
:101C100012946846FFF70CF908B172B6FEE70F2080
:101C2000CDE90A040C940D9400210AA80E94FFF744
:101C300013F808B172B6FEE74FF40070CDE90F500B
:101C40000FA8FEF793FF002801D072B6FEE713B08D
:101C500030BD704710B5406A0021C185C184FFF7CF
:101C60005FFC10BD0168CA6822F49072CA60016806
:101C70004A6922F001024A61016B012904D101681D
:101C8000CA6822F01002CA60202180F83E100021AC
:101C90000163704708B590F83E10222901D0022058
:101CA00008BD82684FF480539A4201D1016921B185
:101CB000816A9A421BD04AB10AE00268816A52687E
:101CC000C2F308020A80816A891C08E0026972B1C5
:101CD0000268526802F07F020A70816A491C8162C0
:101CE000C18D491E0904090CC18503D019E00268A1
:101CF0005268F1E70168CA6822F02002CA600168F0
:101D0000CA6822F48072CA6001684A6922F001023E
:101D10004A61202180F83E10016B012903D0FFF7B2
:101D200079FD002008BD002101630168CA6822F026
:101D30001002CA6001680A68D20602D50A684968BA
:101D40000091818DFFF7EBFBEBE7000070B50446D7
:101D500000680169E26821F4405111430161216981
:101D6000A0680843616908432168CA6841F20C63AE
:101D70009A430243CA6020684169A26921F4407114
:101D8000114341611E492068884202D1FFF70AF8D9
:101D900001E0FEF7F7FF00EBC00101EB0012606805
:101DA00064218000B2FBF0F3B3FBF1F36FF018068F
:101DB0007343B2FBF0F5B2FBF0F605EB830532237B
:101DC00003EB0515B5FBF1F5B6FBF1F605F0F005F3
:101DD00005EB0615B2FBF0F6B2FBF0F0B0FBF1F04C
:101DE0006FF01802504306EB800003EB0010B0FBCD
:101DF000F1F0216800F00F002844886070BD0000F9
:101E0000003801402DE9F041984617460E46044639
:101E1000069D1DE0681C1BD02DB1FEF79FFDA0EBB9
:101E20000800A84214D92068C16821F4D071C160AB
:101E30002068416921F001014161202084F83D00C2
:101E400084F83E00002084F83C000320BDE8F081C7
:101E50002068006836EA000004D00020B842D9D0DB
:101E60000020F3E70120F9E70148FFF75BBB000022
:101E700024000020FEE70907090E002804DB00F11A
:101E8000E02080F80014704700F00F0000F1E0201F
:101E900080F8141D704730380A2801D2012070479D
:101EA000002070478AB0FEF767FDFFF79BFEFFF743
:101EB0000FFDFFF733FDFFF769FD4FF47A74002241
:101EC00001A93D48FFF76BF9012269463A48FFF73F
:101ED0003FF99DF8032039A102A802F50052FEF750
:101EE0007BF99DF8012037A104A8FEF775F99DF84C
:101EF000022034A105A8FEF76FF99DF8042033A154
:101F000006A8FEF769F99DF8052030A107A8FEF79D
:101F100063F99DF806202DA108A8FEF75DF90423BA
:101F20001A4602A92B48FFF777FC01231A462AA17B
:101F30002848FFF771FC02231A4604A92548FFF739
:101F40006BFC01231A4624A12248FFF765FC0223FB
:101F50001A4605A91F48FFF75FFC022301221FA1B3
:101F60001C48FFF759FC02231A4606A91948FFF737
:101F700053FC01231A461AA11648FFF74DFC022311
:101F80001A4607A91348FFF747FC01231A4614A174
:101F90001048FFF741FC02231A4608A90D48FFF735
:101FA0003BFC02231A460FA10A48FFF735FC2046E6
:101FB000FEF7A4FB83E700001000002025303478F2
:101FC0000000000025303278000000002530326427
:101FD00000000000240000202D0000002000000070
:101FE0003A0000000A0D00000000000000000000A0
:101FF00001020304060708090000000001020304AF
:10200000303132333435363738394142434445462E
:102010004030580030313233343536373839616228
:10202000636465664030780004000008000000002A
:102030000000000200010000100000005C20000809
:102040000000002010000000280100086C2000089B
:1020500010000020B8060000440100080100000044
:0C20600010000000000000000024F4004C
:04000005080000ED02
:00000001FF
