:020000040800F2
:10000000000700209101000813190008611700087B
:10001000111900088F040008C11D0008000000002D
:100020000000000000000000000000001719000898
:1000300091040008000000001519000819190008B3
:10004000AB010008AB010008AB010008AB010008E0
:10005000AB010008AB0100089304000899040008F4
:100060009F040008A5040008AB040008AB010008C9
:10007000AB010008AB010008AB010008AB010008B0
:10008000AB010008AB010008AB010008AB010008A0
:10009000AB010008AB010008AB010008AB01000890
:1000A000AB010008AB010008AB010008AB01000880
:1000B000AB0100087119000800000000AB01000846
:1000C000AB0100080000000000000000AB010008C8
:1000D00000000000B51D0008AB0100080000000092
:1000E000AB010008AB010008AB01000800F002F80A
:1000F00000F03FF80AA090E8000C82448344AAF183
:100100000107DA4501D100F034F8AFF2090EBAE880
:100110000F0013F0010F18BFFB1A43F0010318473B
:10012000781D0000981D0000103A24BF78C878C1DF
:10013000FAD8520724BF30C830C144BF04680C60ED
:10014000704700000023002400250026103A28BF35
:1001500078C1FBD8520728BF30C148BF0B60704739
:10016000642900F07D80002070471FB51FBD10B5C9
:1001700010BD00F052F91146FFF7F7FF01F032FE13
:1001800000F070F903B4FFF7F2FF03BC00F078F958
:100190000948804709480047FEE7FEE7FEE7FEE71B
:1001A000FEE7FEE7FEE7FEE7FEE7FEE70448054957
:1001B000054A064B704700006D190008ED00000865
:1001C00000010020000700200003002000030020A1
:1001D0000FB41CB5074B06AA7B44694600900598EE
:1001E00000F003F90020694600F012F91CBC5DF82C
:1001F00014FB0000350200002DE9F0410E460446D4
:10020000002020622046E168884730B3252805D0C9
:10021000D4E901219047206A401CF2E7E1682046BA
:1002200000278847050018D0A5F14100192802D8F9
:1002300020354FF400673246294620462760FFF7F5
:100240008FFF40B1012804D0F61D26F007060836BE
:10025000D8E7361DD6E72846DAE7206ABDE8F08100
:100260002DE9F0410646002410687529314616A58F
:1002700010D0AFF30080002802DA404213A507E057
:1002800031688A0701D512A502E0490704D511A5F6
:10029000012401E0AFF3008000210A2206F12407C7
:1002A00009E0B0FBF2FCB0FBF2F302FB1C003030C3
:1002B00078541846491C0028F3D123462A46304674
:1002C000BDE8F04100F032B8000000002D00000051
:1002D0002B000000200000004FF0000200B5134684
:1002E00094469646203922BFA0E80C50A0E80C5056
:1002F000B1F12001BFF4F7AF090728BFA0E80C5007
:1003000048BF0CC05DF804EB890028BF40F8042BFF
:1003100008BF704748BF20F8022B11F0804F18BF6C
:1003200000F8012B70477047704770472DE9F04780
:100330000D4699469246044600F124080168880655
:1003400004D5E06921F01001216000E00120A842FD
:1003500001DD471B00E00027A1697A1902EB0900C3
:10036000081AA0612078C00602D42046AFF30080AE
:10037000002608E0D4E901211AF806009047206A17
:10038000401C761C20624E45F4DB2078C0060AD55E
:100390002046AFF3008006E0D4E9012130209047E9
:1003A000206A401C2062381EA7F10107F4DC07E038
:1003B000D4E9012118F805009047206A401C20620A
:1003C000281EA5F10105F3DC2046AFF3008020785C
:1003D000000602D50220BDE8F0870120FBE70000FF
:1003E00001694A1C02610878704700B58FB0CDE9F9
:1003F00001310021059105497944CDE903101146E9
:100400006846FFF7F9FE0FB000BD0000E5FFFFFFF3
:100410000A6802F8010B0A607047754600F02CF874
:10042000AE4605006946534620F00700854618B0E1
:1004300020B5FFF7BBFEBDE820404FF000064FF0AF
:1004400000074FF000084FF0000B21F00701AC4609
:10045000ACE8C009ACE8C009ACE8C009ACE8C00928
:100460008D46704710B50446AFF300802046BDE8C6
:100470001040FFF787BE000000487047A000002032
:1004800001491820ABBEFEE7260002007047FEE7D8
:100490007047012000F0C0B8022000F0BDB8042071
:1004A00000F0BAB8082000F0B7B8102000F0B4B8D7
:1004B00072B6FEE710B590F821100022022905D08F
:1004C0000421816380F82020012010BD01680B68A1
:1004D00023F00E030B6001680B6823F001030B602F
:1004E00090F84030C46B012101FA03F3636080F897
:1004F000211080F82020104610BD000010B590F8A3
:1005000021100024022903D00421816301243DE04D
:1005100001680A6822F00E020A6001680A6822F087
:1005200001020A601A4A0168914201D1012121E0C9
:10053000174A1432914201D110211BE0144A28328B
:10054000914201D1891515E0114A3C32914201D105
:1005500089140FE00E4A5032914202D14FF480319B
:1005600008E00B4A6432914202D14FF4801101E05D
:100570004FF08071064A083A5160012180F821103D
:10058000002180F82010416B01B18847204610BD42
:10059000080002402DE9F041012529021B4B4E00C5
:1005A0001B4C012811D0022816D0042821D019494B
:1005B00008280A682146498823D0102817D109B194
:1005C0000A3961806088906310E001221F46184656
:1005D00000F00EF9002205E000221F46184600F048
:1005E00007F901223146384600F002F92570BDE8CE
:1005F000F081BDE8F04100224FF44071184600F050
:10060000F7B86429DED20A31DBE7000000100140B0
:100610000000002014000020044910B50A680242BE
:1006200002D00860FFF7B6FF10BD000014040140BF
:100630002DE9F84FDFF89C91002409F1040A0AF132
:10064000040B23460F270BF1040EBBE00125A54048
:100650002A40AA4276D1DFF880C14E68A6EB0C088A
:1006600066452BD00DDC032E34D005DC36B3012ECD
:1006700019D0022E2FD11BE0112E16D0122E2AD106
:1006800019E0B8F5881F19D006DCB8F5803F15D001
:10069000B8F5801F1FD111E0B8F5001F0ED0B8F5D6
:1006A000041F18D10AE0CB6815E0CB681B1D12E0CF
:1006B000CB6808330FE0CB680C330CE08B682BB1B0
:1006C000012B4FF0080303D0456104E0042302E04E
:1006D000056100E00023FF2A01D8064601E000F191
:1006E00004064FEA840501D9A5F12005D6F800805B
:1006F00007FA05FC28EA0C0803FA05F548EA05089C
:10070000C6F800804D68ED005BD5344DAE6946F00B
:100710000106AE61AD6924F0030605F00105009500
:100720002F4D06EB050CDCF80850A607360F07FA2C
:1007300006F825EA0805DFF8AC80404503D14FF004
:10074000000810E03DE0DFF8A080404502D14FF006
:10075000010808E0DFF89480404502D14FF002081C
:1007600001E04FF0030808FA06F848EA0508CCF85B
:1007700008804D68D9F80060ED034D4601D5164359
:1007800000E096432E604D68DAF80060AD035546F0
:1007900001D5164300E096432E604D68DBF80060FB
:1007A000ED025D4601D5164300E096432E604D688C
:1007B000DEF80060AD02754601D5164300E09643B1
:1007C0002E60641C0A6832FA04F57FF43FAFBDE87E
:1007D000F88F0000000401400000111000100240DA
:1007E0000000014000080140000C014000100140E1
:1007F0000AB1016170470904FBE700000148806805
:10080000704700000400002002488168027811440B
:100810008160704704000020074810B5016841F06E
:1008200010010160032000F075F80F2000F006F8B9
:1008300000F024F8002010BD0020024070B50D4DDE
:1008400004464FF47A712878B1FBF0F00A49096840
:10085000B1FBF0F000F0ECFA48B9102C07D20022FE
:100860002146501E00F036F800206C6070BD01205B
:1008700070BD000004000020100000200C4808B5E6
:10088000816941F001018161816901F001010091FB
:10089000C16941F08051C161C06900F08050009091
:1008A0000448416821F0E06141F08061416008BD89
:1008B0000010024000000140002809DB00F01F0288
:1008C000012191404009800000F1E020C0F80011B2
:1008D00070470000F0B40E4B1B680C46C3F30223B4
:1008E000C3F10705042D00D90425191D072901D2DC
:1008F000002300E0DB1E012606FA05F1491E214017
:1009000099409E40761E16403143F0BC01F059BA22
:100910000CED00E0064900F0070208684FF6FF03FF
:10092000184040EA0220034A104308607047000064
:100930000CED00E00000FA052DE9F0470F46050038
:1009400061D0434E306800F00700B84209D23068E9
:1009500020F0070038433060306800F00700B842EC
:1009600051D128683B4C810712D5400703D56068F8
:1009700040F4E06060602878000703D5606840F4C8
:10098000605060606068A96820F0F0000843606013
:100990002878C00728D06868012810D0216802286C
:1009A00010D0890700292EDA616821F00301014384
:1009B0006160FFF723FF804641F288390DE021682E
:1009C0008903EFE78901EDE7FFF718FFA0EB0801C6
:1009D000494502D90320BDE8F0876068696800F0E6
:1009E0000C00B0EB810FEFD1306800F00700B84287
:1009F0000BD9306820F0070038433060306800F0D1
:100A00000700B84201D00120E5E72878400705D566
:100A10006068E96820F4E0600843606028780007B7
:100A200006D56068296920F4605040EAC100606022
:100A300000F038F86168084AC1F30311515CC840FE
:100A40000649086006480068FFF7F8FE0020C2E784
:100A50000020024000100240801E0008100000200C
:100A6000080000200448054900684968044AC1F3A9
:100A70000221515CC8407047100000200010024065
:100A8000901E00080448054900684968044AC1F3FB
:100A9000C221515CC8407047100000200010024085
:100AA000901E000812A185B00FC98DE80F0014A098
:100AB000144A006804905168134801F00C03042B99
:100AC00010D0082B0ED1C1F38343C9031DF80300D6
:100AD0000AD5516804AAC1F34041515C0A4A504307
:100AE000B0FBF1F005B0704708494843FAE7000051
:100AF00002030405060708090A0B0C0D0E0F10105F
:100B0000010200000010024000127A0000093D00BE
:100B10002DE9F84F040070D02078C04DC00749D0AF
:100B20006868C0F38100012807D06868C0F38100BD
:100B3000022809D16868C00306D52868800339D522
:100B400060680028E7D035E06068B0F5803F0BD0E2
:100B500010B1B0F5A02F11D0286820F480302860A3
:100B6000286820F4802002E0286840F48030286063
:100B7000606890B1FFF742FE06460AE0286840F43C
:100B800080202860F0E700BFFFF738FE801B642854
:100B900073D828688003F7D50CE0FFF72FFE0646D0
:100BA00005E000BFFFF72AFE801B6428F0D8286804
:100BB0008003F7D420789A4E80074FF001094FF058
:100BC000000839D5686810F00C0F07D06868C0F3CA
:100BD0008100022809D16868C00306D4286880070C
:100BE00014D52069012808D110E02069B0B1C6F8F9
:100BF0000090FFF703FE074605E00AE1FFF7FEFD60
:100C0000C01B0228C4D828688007F7D52868616906
:100C100020F0F80040EAC10028600DE0C6F800802E
:100C2000FFF7ECFD074604E0FFF7E8FDC01B0228D4
:100C300023D828688007F7D4207800072CD5794876
:100C4000A169D9B1C0F80090FFF7D8FD074604E0CC
:100C5000FFF7D4FDC01B02280FD8686A8007F7D5BC
:100C600071484FF4FA510068B0FBF1F0009000BFFA
:100C70000098411E0091FAD20EE080E0C0F800809A
:100C8000FFF7BCFD074604E0FFF7B8FDC01B0228D4
:100C900075D8686A8007F7D42078400760D5E8697E
:100CA0000027C00008D4E86940F08050E861E86996
:100CB000012700F0805000905C480168C90513D4FA
:100CC0000168834641F480710160FFF797FD824619
:100CD00006E000BFFFF792FDA0EB0A0064284ED8A3
:100CE000DBF80000C005F5D5E06801280AD008B19E
:100CF000052813D0286A20F001002862286A20F015
:100D0000040002E0286A40F001002862E06841F235
:100D1000883B98B1FFF772FD82460BE0286A40F0ED
:100D200004002862EEE700BFFFF768FDA0EB0A01B0
:100D300059455AD8286A8007F6D50CE0FFF75EFDC2
:100D4000824605E0FFF75AFDA0EB0A0159454CD851
:100D5000286A8007F6D41FB1E86920F08050E86166
:100D6000E06988B36968C1F38101022944D002288F
:100D7000C6F8608004D0FFF741FD044638E034E057
:100D8000FFF73CFD074604E0FFF738FDC01B0228D3
:100D90002BD828688001F7D4206AB0F5803F05D1B0
:100DA0006868A16820F4003008436860D4E908014D
:100DB0000843696821F4741108436860C6F86090BC
:100DC000FFF71CFD044606E025E000BFFFF716FD17
:100DD000001B022809D828688001F7D51BE000BF56
:100DE000FFF70CFD001B022802D90320BDE8F88F95
:100DF00028688001F4D40EE00128F7D06868226AE0
:100E000000F48031914204D1616A00F4701088428C
:100E100001D00120EAE70020E8E7000000100240CE
:100E20000000424280044242100000200070004056
:100E300010B5401EB0F1807F01D3012010BD4FF0EE
:100E4000E02460610F21601700F0BBFF0020A0616B
:100E500007202061002010BD7047704770B590F8E2
:100E60003C20012A23D0012480F83C40022280F853
:100E70003D2003685A689D6822F070060A68324374
:100E80005A600C4B02689A4205D0B2F1804F02D0F2
:100E9000094B9A4204D1496825F0800319439160B7
:100EA00080F83D40002180F83C10084670BD0220CB
:100EB00070BD0000002C01400004004010B504008B
:100EC00003D094F83D0010B107E0012010BD0020D0
:100ED00084F83C00204600F01FF8022084F83D0012
:100EE000211D206800F04AFD012084F8460084F8A6
:100EF0003E0084F83F0084F8400084F8410084F804
:100F0000420084F8430084F8440084F8450084F8E3
:100F10003D00002010BD000008B500680B49884264
:100F200012D10B48C16941F00201C161C0690022C0
:100F300000F00200009011461D20FFF7CBFCBDE839
:100F400008401D20FFF7B8BC08BD000000040040A9
:100F50000010024070B5044690F83C00012817D0FC
:100F6000012584F83C50022084F83D002068826806
:100F700022F0770222F47F4282600868502830D045
:100F80000DDC20284DD005DC98B310283BD148E07B
:100F9000022070BD302844D0402834D139E0602888
:100FA00028D0702806D0B0F5805F2CD0B0F5005F57
:100FB00029D10AE0CB68D1E90121206800F019FDB0
:100FC0002068816841F0770109E0CB68D1E901210F
:100FD000206800F00EFD2068816841F48041816046
:100FE00011E0CA684968206800F0B8FD5021206807
:100FF00007E016E0CA684968206800F0C0FD60217B
:10100000206800F000FD84F83D50002084F83C008A
:1010100070BDCA684968206800F0A0FD40212068C2
:10102000EFE7226801461046EBE7704770B50446CB
:10103000006801694FF00005C943890715D4C168EC
:10104000C943890711D4E91E016101202077206876
:1010500080698007204602D0FFF7E7FF04E000F038
:10106000C9F8204600F058F9257720680169C9437E
:10107000490717D4C168C943490713D46FF0040165
:101080000161022020772068806910F4407F2046AB
:1010900002D0FFF7CAFF04E000F0ACF8204600F0F1
:1010A0003BF9257720680169C943090716D4C1684F
:1010B000C943090712D46FF00801016104202077A9
:1010C0002068C0698007204602D0FFF7AEFF04E029
:1010D00000F090F8204600F01FF92577206801699C
:1010E000C943C90617D4C168C943C90613D46FF0F0
:1010F00010010161082020772068C06910F4407F4A
:10110000204602D0FFF791FF04E000F073F820467C
:1011100000F002F9257720680169C943C90708D1A1
:10112000C168C943C90704D1891E0161204600F086
:101130003FF920680169C943090609D4C168C94358
:10114000090605D46FF0800101612046FFF784FE97
:1011500020680169C943490609D4C168C9434906E1
:1011600005D46FF040010161204600F022F92068AB
:101170000169C94389060BD4C168C943890607D4EC
:101180006FF0200101612046BDE87040FFF765BEA9
:1011900070BD000000B585B0002100910191029161
:1011A000039100680F4988421AD10F48816941F0C4
:1011B000100181618069694600F010000490802070
:1011C00000900220019003900848FFF731FA084888
:1011D000416821F4406141F0E06141F440614160C7
:1011E00005B000BD000400400010024000100140A6
:1011F00000000140704770B5044690F83C000D4671
:1012000001280AD0012084F83C0042B1042A18D0F9
:10121000082A2AD00C2A4DD139E0022070BD20685E
:1012200000F0FAFB2068816941F0080181612068C3
:10123000816921F004018161206881692A69114373
:1012400011E0206800F010FC2068816941F4006121
:1012500081612068816921F48061816120688169F0
:101260002A6941EA0221816124E0206800F028FC1B
:101270002068C16941F00801C1612068C16921F09D
:101280000401C1612068C1692A69114311E0206825
:1012900000F042FC2068C16941F40061C16120682E
:1012A000C16921F48061C1612068C1692A6941EA8C
:1012B0000221C161002084F83C0070BD10B504001B
:1012C00003D094F83D0010B107E0012010BD0020CC
:1012D00084F83C00204600F01EF8022084F83D000F
:1012E000211D206800F04AFB012084F8460084F8A4
:1012F0003E0084F83F0084F8400084F8410084F800
:10130000420084F8430084F8440084F8450084F8DF
:101310003D00002010BD70477047000010B5044626
:10132000022249B104290ED0082913D094F84100B3
:10133000012816D0012010BD94F83E000128F9D1F3
:1013400084F83E200FE094F83F000128F2D184F8A1
:101350003F2008E094F840000128EBD184F84020B9
:1013600001E084F841200122206800F035FB0E499D
:101370002068884203D1426C42F4004242642068F3
:10138000884205D0B0F1804F02D00849884204D18C
:10139000816801F00701062903D0016841F00101CD
:1013A0000160002010BD0000002C0140000400403E
:1013B0007047704770477047F8B502680446106878
:1013C000D168536910F00F0F4FF0000554D003F0AF
:1013D000010601F4907737435FD0C20705D0CA05F4
:1013E00003D5226C42F001022264420705D5DA07D8
:1013F00003D0226C42F002022264820705D5DA078C
:1014000003D0226C42F004022264020707D501F0E7
:101410002002324303D0226C42F008022264226C84
:10142000002A35D0800604D5880602D5204600F073
:10143000D8FB20684069216CC0F3801001F00801DE
:101440000143204625D000F0B4FB206841694906DD
:101450001BD5416921F040014161A06BA8B15849F9
:101460004163A06BFFF74AF8002811D0A06B416BD5
:1014700001B0BDE8F040084783060ED58B060CD5B9
:101480002046BDE8F84000F0ACBB2046FFF793FFD4
:10149000F8BDFFF790FF2564F8BD266B2023012ED1
:1014A00052D1C60650D5CE064ED510685068009071
:1014B000506940062AD5A16B086840680004000CFA
:1014C000EAD0A68D8642E7D9E0858869202818D021
:1014D000D06820F48070D0602068416921F001015B
:1014E00041612068416921F04001416184F83E304A
:1014F00025632068C16821F01001C160A06BFEF770
:10150000D9FFA08DE18D401A81B219E0A08DE18D47
:10151000401A81B2E08D0028BED00029BCD0D0682E
:1015200020F49070D0602068426922F0010242618C
:1015300084F83E3025632068C26822F01002C26041
:101540002046FFF737FFF8BD05062BD50D0629D538
:1015500094F83D002128F6D1A068B0F5805F01D154
:101560002069B0B1206A411C21622168007848607E
:10157000E08C401E0004000CE084E4D12068C168C7
:1015800021F08001C1602068C16841F04001C16064
:10159000F8BD206A0088C0F308005060206A801CF3
:1015A0002062E5E74006F3D54806F1D5D16820462C
:1015B00021F04001D16084F83D3000F0D0F8F8BD52
:1015C000A31B000870B5040004D094F83D0000256A
:1015D00010B106E0012070BD84F83C50204600F0B8
:1015E00023F8242084F83D002068C16821F40051CC
:1015F000C160204600F050FB2068016921F4904151
:1016000001612068416921F02A0141612068C168B7
:1016100041F40051C1602564202084F83D0084F825
:101620003E00002070BD000030B585B0002400945D
:101630000194029403940068184988422CD11848F8
:10164000816941F480418161816901F480410491A3
:10165000816941F0040181618069124D00F004004C
:1016600004904FF40070009002200190032003903A
:1016700069462846FEF7DCFF2815CDE900046946D7
:1016800028460294FEF7D4FF002211462520FFF7DA
:1016900021F92520FFF710F905B030BD00380140D1
:1016A0000010024000080140704700002DE9F84397
:1016B000044690F83D001F4616460D4620284CD1A2
:1016C000C5B1BEB194F83C00012846D0012084F891
:1016D0003C004FF00008C4F84080212084F83D0011
:1016E000FFF78CF8A6848146E684A068B0F5805F99
:1016F00003D004E00120BDE8F883206928B12E461C
:101700005FF0000584F83C800EE00026FAE78021B7
:10171000204600F01DFBA0B9AEB116F8010B216800
:101720004860E08C401EE084E08C4B464FF00002A5
:1017300000970028EBD14FF04001204600F008FB55
:1017400030B10320D7E735F8020BC0F30800E6E715
:10175000202084F83D000020CDE70220CBE7704731
:10176000FEE7000070B586B0002431480094019473
:1017700002940394816941F008018161816901F05B
:1017800008010491816941F010018161816901F0D2
:1017900010010491816941F0040181618069254E45
:1017A00000F004004FF440750490002229463046B2
:1017B000FFF71EF81F2000901F48CDE9010469467D
:1017C0001E48FEF735FF11200095CDE901040220E7
:1017D000039069463046FEF72BFF00221146062093
:1017E000FFF778F80620FFF767F800221146072078
:1017F000FFF770F80720FFF75FF800221146082076
:10180000FFF768F80820FFF757F800221146092073
:10181000FFF760F80920FFF74FF8002211460A2071
:10182000FFF758F80A20FFF747F806B070BD000030
:10183000001002400010014000001110000C014097
:1018400010B58EB000240794089409940A940B9460
:101850001C2168460C94FEF73FFD1E481C490160A0
:101860004F21C0E901146321C0E903148461FFF72B
:1018700025FB08B1FEF71CFE4FF48050079007A926
:101880001448FFF767FB08B1FEF712FE1148FFF797
:1018900015FD08B1FEF70CFE0B940BA90D480C9436
:1018A000FFF7DCFA08B1FEF703FE6020CDE9000483
:1018B000022002900422694604940648FFF79BFC2C
:1018C00008B1FEF7F5FD0348FFF764FC0EB010BD4C
:1018D00000040040140000200C4810B50A490160C3
:1018E0004FF496414160002181600C22C160C0E943
:1018F00004128161C161FFF765FE002803D0BDE8D5
:101900001040FEF7D5BD10BD003801405C0000203E
:10191000FEE7FEE770477047FEF776BF10B590B060
:1019200028216846FEF7D8FC14210AA8FEF7D4FC4B
:1019300002200090012004901020002405900794BC
:101940006846FFF7E5F808B172B6FEE70F20CDE96B
:101950000A040C940D9400210AA80E94FEF7ECFFE3
:10196000002801D072B6FEE710B010BD704700002D
:101970000148FFF75BBB00001400002070B502684F
:10198000134B144C4FF08046984203D0B04201D024
:10199000A04203D122F070054A682A43984203D03E
:1019A000B04201D0A04203D122F44074CA6822435D
:1019B0004C6922F08002224302608A68C2620A688F
:1019C0008262984201D1096901630121416170BDC0
:1019D000002C01400004004010B501F01F0301215C
:1019E000046A99408C430462016A9A40114301627F
:1019F00010BD10B5846842EA032224F47F440A43F0
:101A00002243826010BD826822F070020A4342F0D5
:101A1000070181607047000030B5026A22F00102C0
:101A20000262026A4368846924F073050C682C43DF
:101A300022F002058A682A430A4DA8420BD122F0FF
:101A40000805CA6823F440732A434D6922F0040252
:101A50001D438B692B434360846149684163026283
:101A600030BD0000002C014030B5026A22F01002A7
:101A70000262026A436884690D6824F4E64444EA19
:101A800005248D6822F0200242EA05120B4DA8427F
:101A90000ED1CD6822F0800242EA05124D6923F48E
:101AA000406343EA85038D6922F0400243EA8503DF
:101AB0004360846149688163026230BD002C01404B
:101AC00030B5026A22F480720262036A4268C46915
:101AD00023F4007324F073050C682C438D6843EAEB
:101AE00005230C4DA8420ED1CD6823F4006343EAD0
:101AF00005234D6922F4405242EA05128D6923F410
:101B0000806342EA05124260C4614968C1630362AE
:101B100030BD0000002C014030B5026A22F4805232
:101B20000262046A4268C3690D6823F4E64343EA2B
:101B300005238D6824F4005444EA0534064DA84278
:101B400004D14D6922F4804242EA85124260C361A9
:101B500049680164046230BD002C014010B5036A7D
:101B6000046A24F001040462846924F0F00444EA65
:101B7000021423F00A020A438461026210BD10B508
:101B8000036A23F0100303628369046A23F4704339
:101B900043EA023224F0A00343EA011182610162A8
:101BA00010BD10B5406A0021C185C184FFF703FC58
:101BB00010BD0168CA6822F49072CA6001684A695F
:101BC00022F001024A61016B012904D10168CA684F
:101BD00022F01002CA60202180F83E10002101632B
:101BE000704708B590F83E10222901D0022008BDA8
:101BF00082684FF480539A4201D1016921B1816A10
:101C00009A421BD04AB10AE00268816A5268C2F364
:101C100008020A80816A891C08E0026972B10268C0
:101C2000526802F07F020A70816A491C8162C18D8C
:101C3000491E0904090CC18503D019E002685268E5
:101C4000F1E70168CA6822F02002CA600168CA6828
:101C500022F48072CA6001684A6922F001024A6176
:101C6000202180F83E10016B012903D0FFF71CFDF5
:101C7000002008BD002101630168CA6822F010023B
:101C8000CA6001680A68D20602D50A6849680091EC
:101C9000818DFFF78FFBEBE770B5044600680169A3
:101CA000E26821F44051114301612169A0680843B1
:101CB000616908432168CA6841F20C639A43024390
:101CC000CA6020684169A26921F4407111434161F1
:101CD0001E492068884202D1FEF7D4FE01E0FEF7DB
:101CE000C1FE00EBC00101EB0012606864218000BE
:101CF000B2FBF0F3B3FBF1F36FF018067343B2FBE2
:101D0000F0F5B2FBF0F605EB8305322303EB051586
:101D1000B5FBF1F5B6FBF1F605F0F00505EB0615A0
:101D2000B2FBF0F6B2FBF0F0B0FBF1F06FF018028E
:101D3000504306EB800003EB0010B0FBF1F021688C
:101D400000F00F002844886070BD0000003801409A
:101D50002DE9F041984617460E460446069D1DE0C3
:101D6000681C1BD02DB1FEF749FDA0EB0800A8426E
:101D700014D92068C16821F4D071C160206841691C
:101D800021F001014161202084F83D0084F83E00EB
:101D9000002084F83C000320BDE8F0812068006842
:101DA00036EA000004D00020B842D9D00020F3E782
:101DB0000120F9E70148FFF7FFBA00005C000020AE
:101DC000FEE70907090E002804DB00F1E02080F897
:101DD0000014704700F00F0000F1E02080F8141D9F
:101DE0007047000008B5FEF717FDFFF797FDFFF7F6
:101DF000B9FCFFF725FDFFF76FFD04211848FFF739
:101E00008DFA1749174C096860888863164D0022BF
:101E10004FF480712846FEF7EBFC00226915284636
:101E2000FEF7E6FC002520780128FCD104231A46A1
:101E30000EA11048FFF73AFC62880FA16846FEF732
:101E4000C7F903231A4669460A48FFF72FFC022305
:101E50001A460AA10748FFF729FC2570E3E70000AE
:101E600014000020000000200010014050574D3A9F
:101E7000000000005C000020256400000A0D000046
:101E8000000000000000000001020304060708092A
:101E90000000000001020304B81E0008000000203A
:101EA0001400000028010008CC1E000814000020C7
:101EB000EC06000044010008000050000100000092
:0C1EC00010000000000000000024F400EE
:04000005080000ED02
:00000001FF
