:020000040800F2
:10000000B8060020A10100081B1F00085D1E0008A3
:10001000191F000875110008E52100080000000004
:100020000000000000000000000000001F1F00088A
:1000300077110008000000001D1F0008211F0008A4
:10004000BB010008BB010008BB010008BB010008A0
:10005000BB010008BB010008BB010008BB01000890
:10006000BB010008BB010008BB010008BB01000880
:10007000BB010008BB010008BB010008BB01000870
:10008000BB010008BB010008BB010008BB01000860
:10009000BB010008BB010008BB010008BB01000850
:1000A000BB010008BB010008BB010008BB01000840
:1000B000BB010008BB01000800000000BB010008F4
:1000C000BB0100080000000000000000BB010008A8
:1000D00000000000D9210008BB010008000000005A
:1000E000BB010008BB010008BB01000800F002F8DA
:1000F00000F047F80AA090E8000C82448344AAF17B
:100100000107DA4501D100F03CF8AFF2090EBAE878
:100110000F0013F0010F18BFFB1A43F0010318473B
:100120007025000090250000103A24BF78C878C1DF
:10013000FAD8520724BF30C830C144BF04680C60ED
:10014000704700000023002400250026103A28BF35
:1001500078C1FBD8520728BF30C148BF0B60704739
:10016000662902F0CD81002070471FB500F0D6FA55
:1001700004000020002102F017F9E0601FBD10B557
:1001800010BD00F0C7FB1146FFF7EFFF02F058F873
:1001900000F0E5FB03B4FFF7F2FF03BC00F028FC1E
:1001A0000948804709480047FEE7FEE7FEE7FEE70B
:1001B000FEE7FEE7FEE7FEE7FEE7FEE70448054947
:1001C000054A064B70470000751F0008ED00000847
:1001D000B8000020B8060020B8020020B8020020B5
:1001E0000FB41CB5074B06AA7B44694600900598DE
:1001F00000F07BFA0020694600F08AFA1CBC5DF82A
:1002000014FB0000250500002DE9F0410E460446D0
:10021000002020622046E168884730B3252805D0B9
:10022000D4E901219047206A401CF2E7E1682046AA
:1002300000278847050018D0A5F14100192802D8E9
:1002400020354FF400673246294620462760FFF7E5
:1002500087FF40B1012804D0F61D26F007060836B6
:10026000D8E7361DD6E72846DAE7206ABDE8F081F0
:100270004FF0000200B5134694469646203922BF3F
:10028000A0E80C50A0E80C50B1F12001BFF4F7AF8A
:10029000090728BFA0E80C5048BF0CC05DF804EB6C
:1002A000890028BF40F8042B08BF704748BF20F8DA
:1002B000022B11F0804F18BF00F8012B70477047D8
:1002C0007047704770472DE9FF4F0C461E464FF0B0
:1002D000FF378BB0D2E90001DDF860800A908A46D2
:1002E000C1F30A5505B93D46002108464FF000000C
:1002F000BAF1000F00F4400005DA00EB80004FF483
:10030000400101EA50004FEA9059B9F1010F00DDB8
:10031000B9460A9850EA4A000ED044F61050A5F2A9
:10032000FF3545432F14B8F1000F1ED07542291E2A
:100330001EDDC9F100021CE0B8F1010F4FF0000012
:1003400001D0302103E0F24305E02154401CB042CB
:10035000FBDB30460022002121540B99C1F80880B4
:10036000C1E900200FB0BDE8F08FBD1B6D1CDEE7BA
:100370004A4600DA694206A800F05AFA06AB93E84A
:10038000070003AB83E8070050460A9900F037FBEB
:100390008DE80700A0F500501F3800900398002D4D
:1003A00009DD42F21F014A46084403A9039068464A
:1003B00000F096FD08E0A0F500504A461F3803A95A
:1003C0000390684600F0A0FD8DE807000004000CD3
:1003D00003D04FF0FF30410800E01046B8F1000FA5
:1003E00003D00022009215461EE0751E05D400F0D1
:1003F00099F9303262556D1EF9D5B3460122084392
:1004000002D000227F1C04E02078302801D1002295
:100410007F1E002A099786D01DE0112D07DA00F013
:1004200081F9303262556D1C50EA0102F5D1084362
:1004300002D00098C8B10EE00021681E05E0235CE0
:10044000625C63542254401E491C8142F7DBAB4678
:10045000A81B401E0990002004F80B000B98099A75
:10046000C0F80880C0E9002B7CE711264FF0000897
:1004700059E72DE9F04F88460446D21D22F00701C6
:1004800091B0D1E90001CDE90A0101F0ACFE0246CC
:100490000B98C00F01D02D2007E02068810701D5FF
:1004A0002B2002E0202101EAC000032A099001D09C
:1004B000072A05DB03464146204600F079F90BE1A7
:1004C0002078800601D5E06900E00620B8F1650FCC
:1004D000814606D0B8F1660F18D0B8F1670F70D119
:1004E00031E00020B9F1110F009001DB112301E090
:1004F00009F101030AAA01A90CA8FFF7E4FEDDE94E
:100500000C70002609F10105834647E001204B46A7
:1005100000904FF000470AAA01A90CA8FFF7D3FEEC
:10052000DDE90DB00C995D46002610B909F1010016
:100530000D18B9EB050003D4C0F1FF3609F1010530
:10054000A5EB09002BE0B9F1010F01DA4FF0010929
:100550000020B9F1110F0090484601DD112300E0A1
:1005600003460AAA01A90CA8FFF7ADFEDDE90C704D
:100570004D4600268346207800070AD4AB4500DAB2
:100580005D4601A8012D04DD411911F8011C302937
:1005900007D04F4502DA17F1040F04DA0120824632
:1005A0000FE06D1EEEE7002F02DCED1B3E4403E082
:1005B000781CA84200DD7D1CB81B00F1010A4FF039
:1005C00000472078000703D4AA4501DB4FF0FF3A2B
:1005D0000021B7F1004F0DF143088DF8431024D0EE
:1005E00002202B23002F01DA7F422D230A21021E35
:1005F000A0F1010000DC5FB197FBF1FC97FBF1F289
:1006000001FB1C7C17460CF1300C08F801CDEEE71D
:10061000A8F1010003702188090501D5452100E0FA
:100620006521A0F1010800F8011C09980FA9A1EBB0
:100630000807FF1D00B10120411901EBEA70A16913
:100640003844081A401EA0612078C00602D4204613
:10065000AFF30080099828B1D4E901219047206ABE
:10066000401C20622078C00622D52046AFF30080CF
:100670001EE0002E04DBB34502DD01A8805D00E032
:100680003020D4E901219047206A401C2062761C6A
:10069000AAF101005FEA000A0AD100F03FF8C06841
:1006A0000168405CD4E901219047206A401C206227
:1006B000281EA5F10105DCDC07E0D4E9012118F8CA
:1006C000010B9047206A401C2062381EA7F10107E9
:1006D000F3DC2046AFF30080032011B043E60000B6
:1006E00001694A1C02610878704700B58FB0CDE9F6
:1006F00001310021059105497944CDE903101146E6
:100700006846FFF781FD0FB000BD0000E5FFFFFF69
:100710000A6802F8010B0A60704700000048704741
:100720007400002030B5B0F10A024FEA900E71F16A
:1007300000034EEA817EB0EB0E0061EB91014FEABF
:10074000101E4EEA017E10EB0E0041EB11114FEA34
:10075000102E4EEA016E10EB0E0041EB11214FEA14
:10076000104E4EEA014E10EB0E0041EB11414018C5
:1007700041F100014FEAD00040EA41704FEAD10157
:1007800010EB80054FEA810444EA907444EB0104C5
:100790006D1944EB0404521BA3414FF0000348BF02
:1007A0000A3200D530BD401C41F1000130BD0000CF
:1007B0002DE9F0411F46044603260168072A01F48B
:1007C000006004DB08B116A505E016A503E008B13A
:1007D00015A500E015A521F010002060A069C01E3D
:1007E000A0610FB1401EA0612046AFF300804FB161
:1007F000D4E9012138469047206A401C2062C01C81
:10080000206206E0206AFAE7D4E9012115F8010B1D
:100810009047761EF8D22046AFF30080BDE8F08105
:100820004E414E006E616E00494E4600696E660094
:100830002DE9F047814616468AB0334878440DC802
:100840008DE80D0030487844801C03AC0DC884E866
:100850000D0041F69B300844372190FBF1F290FBEC
:10086000F1F5A5F1800501FB12041B3C02D56442A1
:10087000012000E00020DFF890A080460027FA4425
:10088000AAF1BE0A0DE0E00709D03246684607EB40
:1008900047010AEB810100F037FB8DE80700641087
:1008A0007F1C002CEFD1184F7F44AC3F18E0E807C5
:1008B00014D007EB04100DF1180A90E80E008AE836
:1008C0000E00C068F04201D198190890324606A97E
:1008D00003A800F019FB03AB83E807006D10641C4C
:1008E000002DE4D132466946B8F1000F03A802D0CA
:1008F00000F0F6FA01E000F007FBC9E90001C9F8D1
:1009000008200AB0BDE8F087381E00000048704794
:10091000540000207546FFF7F9FFAE460500694612
:10092000534620F00700854618B020B5FFF746FC77
:10093000BDE820404FF000064FF000074FF00008E0
:100940004FF0000B21F00701AC46ACE8C009ACE861
:10095000C009ACE8C009ACE8C0098D46704710B5C5
:100960000446AFF300802046BDE81040FFF712BCFC
:100970004FF0013C50F8042B51F8043B9A4221D12E
:10098000A2EB0C03934313EACC1317D150F8042BBA
:1009900051F8043B9A4215D1A2EB0C03934313EA9E
:1009A000CC130BD150F8042B51F8043B9A4209D1D7
:1009B000A2EB0C03934313EACC13DBD04FF00000FF
:1009C000704700BFD01A01BAB1FA81F101F01801E5
:1009D00022FA01F0CB40C1F12001DBB2C0B2C01A53
:1009E0002CFA01F3D11A914311EAC311E6D17047F1
:1009F00001491820ABBEFEE72600020070475FEAFF
:100A0000400C08BF91F0000F4FEA8C234FEAC1223F
:100A100043EA51514FEA1C5018BF00F5F0404FEA2D
:100A2000300018BF41F000415FEA6C5C00F02980A3
:100A3000BCF1FF3F08BF40F080407047130C06BF79
:100A400012044FF0100C4FF0000C130E04BF1202F2
:100A50000CF1080C130F04BF12010CF1040C930FDE
:100A600004BF92000CF1020CD30F04BF52000CF132
:100A7000010C11464FF00002A0F11F00A0EB0C008A
:100A8000704711F0004F08BF704731F000413FF44C
:100A9000D5AF0B0C06BF09044FF0100C4FF0000C43
:100AA0000B0E04BF09020CF1080C0B0F04BF090167
:100AB0000CF1040C8B0F04BF89000CF1020CCB0F5E
:100AC00004BF49000CF1010CCCF12003A0EB0C0099
:100AD00022FA03F302FA0CF241EA030100F10100E9
:100AE000704720F07F4C80EA030023F07F47ACEB97
:100AF000070303F57C5300F0004003F1FF032DE9E9
:100B000080494FEA154B09B44FEA144325EA0B4ECE
:100B100024EA03480FF2042606EB132749083E781F
:100B20005FEA320203FB0667C7F5000707FB06F61C
:100B30004FEA54374FEAD64606F1020607FB066C29
:100B4000CCF1005C4FEA1C472CEA074C07FB06F48B
:100B50000CFB06F504EB15464FEA961634BF002051
:100B60004FF000404FEAD13706FB07FC4FEA1C4C20
:100B70000CFB0BF7D21B03FB0CF761EB07010CFB23
:100B80000EF7B0EB074072EB17420CFB08F734BFCF
:100B9000A2EB0742B2EB074261EB17414FEA0C446C
:100BA0004FEA910706FB07FC4FEA1C4C0CFB0BF7C6
:100BB000B0EBC74072EB573203FB0CF734BFA2EB2C
:100BC000C742B2EBC74261EB57310CFB0EF7B0EBFB
:100BD000C70072EB57720CFB08F734BFA2EBC702D9
:100BE000B2EBC70261EB5771039F4FEA816141EAA3
:100BF000921104EBCC044FEAD1374FEA826206FB34
:100C000007FC42EA90124FEA80604FEA1C4C0CFB52
:100C10000BF7D21B03FB0CF761EB07010CFB0EF784
:100C2000B0EB074072EB17420CFB08F734BFA2EBA6
:100C30000742B2EB074261EB17414FEA8C554FEA8E
:100C4000910704EB9C2406FB07FC4FEA1C4C0CFBB1
:100C50000BF7B0EBC74072EB573203FB0CF734BF16
:100C6000A2EBC742B2EBC74261EB57310CFB0EF768
:100C7000B0EBC70072EB57720CFB08F734BFA2EB66
:100C8000C702B2EBC70261EB577115EB4C254FEA77
:100C9000816141EA92114FEA82624FEAD13742EA1A
:100CA000901206FB07FC44F100044FEA80604FEA13
:100CB0001C4C0CFB0BF7D21B03FB0CF761EB070181
:100CC0000CFB0EF7B0EB074072EB17420CFB08F77A
:100CD00034BFA2EB0742B2EB074261EB174115EBC1
:100CE0001C154FEA813141EA92414FEA823242EAD1
:100CF00090424FEA80304FEA0C7644F1000448EA13
:100D000003434EEA0B484FF0000EB2EB080C71EBB8
:100D1000030724BF624639464EEB0E0E4FF0000B20
:100D20000018524149414BEB0B0BB2EB080C71EB35
:100D300003077BF1000B24BF624639464EEB0E0ED3
:100D40004FF0000B0018524149414BEB0B0BB2EB3B
:100D5000080C71EB03077BF1000B24BF6246394698
:100D60004EEB0E0E51EA020718BF46F0010616EBD5
:100D70000E7655F1000254F1000103D5BDE889015A
:100D8000BDE80088BDE88901BDE80048B6195241B8
:100D900041EB0101A3F10103704780807F7E7D7CE0
:100DA0007B7A7978777676757473727171706F6EFD
:100DB0006E6D6C6C6B6A6A696868676666656464A8
:100DC000636362616160605F5F5E5E5D5D5C5C5B32
:100DD0005B5A5A59595858575756565555555454A1
:100DE000535352525251515050504F4F4F4E4E4DFF
:100DF0004D4D4C4C4C4B4B4B4A4A4A49494948484B
:100E0000484747474746464645454544444444438A
:100E100043434342424242414141002B26D47700A2
:100E200021D01CB54FEA370703B44FF010004FF044
:100E300010014FF000000FBCBDE810400BF1010B9A
:100E4000BBF1010F08BF5FEA170722BF12F10102D1
:100E500011F101014FF0004143F1000300F00040A7
:100E600043EA00007047F9D35708DAE746EA064636
:100E700013F1400F4FEA16461FDD13F1200FDFBFBD
:100E800016430A46002120335B42C8D0C3F1200735
:100E900046EA064602FA07F74FEA164646EA07060A
:100EA000C3F1200722FA03F201FA07F721FA03F14E
:100EB0004FF0000342EA0702B1E746EA020646EABB
:100EC00006464FEA164646EA0106BCBF46EA064613
:100ED000360C4FF000034FF000024FF000019EE788
:100EE0002DE9C048934630B491E8380007C831EA8C
:100EF000400C48BF34EA430C03D5FFF7F2FDFFF77F
:100F00008CFFF0BCBDE800882DE9C048934630B4A2
:100F100091E8380007C810F0804F08BF13F0804FE9
:100F200003D100F005F8FFF778FFF0BCBDE80088BA
:100F300020F07F4780EA030023F07F4C07EB0C038F
:100F4000A3F57C5300F00040A3F1FE0392F0000FE4
:100F500000F0B38095F0000F00F077802DE9014993
:100F60004FEA11404FEA144621EA004800FB06FC14
:100F700024EA064708FB06F607FB08F800FB07F71C
:100F800018EB06484CEB164C4FEA124B18EB07488F
:100F90004FEA15464CEB174022EA0B4E0BFB06FCC2
:100FA00025EA06470EFB06F607FB0EFE0BFB07F7CE
:100FB0001EEB064E4CEB164C4FF000061EEB074E98
:100FC0004CEB174B18EB0B0840F1000018EB0E0B25
:100FD00058EB000840F100008F1A4FF000013CBFB1
:100FE000C943661B14BFB5EB040C00213CBFC943C9
:100FF000F61B4FEA17444EEA8E0E27EA04454FEAE5
:101000001C4704FB07622CEA074C05FB07F70CFBA7
:1010100005F604FB0CFC16EB074642EB174216EBF9
:101020000C4642EB1C421BEB060658EB0202414108
:1010300046EA9E0601D5BDE80189B619524141EB49
:101040000101A3F10103BDE801894FEA14454FEA0C
:10105000114724EA054621EA074C05FB07F406FB85
:1010600007F70CFB06F105FB0CFC11EB074144EB09
:1010700017444FEA124711EB0C4144EB1C4422EA9F
:10108000074C05FB07F206FB07F70CFB06F605FB12
:101090000CFC16EB074642EB174216EB0C4642EBF4
:1010A0001C456A1854F1000148BF7047B6195241F7
:1010B00041EB0101A3F10103704795F0000F37D018
:1010C0004FEA11424FEA144721EA024624EA074C4C
:1010D00002FB07F106FB07F70CFB06F402FB0CFC16
:1010E00014EB074441EB17414FEA154714EB0C444E
:1010F00041EB1C4125EA074C02FB07F506FB07F70D
:101100000CFB06F602FB0CFC16EB074645EB1745FD
:1011100016EB0C4645EB1C42121951F1000148BF79
:101120007047B619524141EB0101A3F10103704729
:101130004FEA14454FEA114724EA054621EA074CD5
:1011400005FB07F106FB07F70CFB06F24FF0000664
:1011500005FB0CFC12EB074241EB174112EB0C4272
:1011600051EB1C4148BF7047921841EB0101A3F1BC
:1011700001037047FEE7704772B6FEE710B590F8BE
:1011800021100022022905D00421816380F820204B
:10119000012010BD01680B6823F00E030B6001688D
:1011A0000B6823F001030B6090F84030C46B012101
:1011B00001FA03F3636080F8211080F820201046C4
:1011C00010BD000010B590F821100024022903D0B2
:1011D0000421816301243DE001680A6822F00E02C7
:1011E0000A6001680A6822F001020A601A4A01686E
:1011F000914201D1012121E0174A1432914201D1DB
:1012000010211BE0144A2832914201D1891515E0C2
:10121000114A3C32914201D189140FE00E4A5032FA
:10122000914202D14FF4803108E00B4A643291427E
:1012300002D14FF4801101E04FF08071064A083A64
:101240005160012180F82110002180F82010416BAD
:1012500001B18847204610BD0800024070B5044621
:1012600000F0F8F80546601C02D0044800780444F9
:1012700000F0F0F8401BA042FAD370BD000000203F
:101280002DE9F84FDFF89C91002409F1040A0AF1D6
:10129000040B23460F270BF1040EBBE00125A540EC
:1012A0002A40AA4276D1DFF880C14E68A6EB0C082E
:1012B00066452BD00DDC032E34D005DC36B3012E71
:1012C00019D0022E2FD11BE0112E16D0122E2AD1AA
:1012D00019E0B8F5881F19D006DCB8F5803F15D0A5
:1012E000B8F5801F1FD111E0B8F5001F0ED0B8F57A
:1012F000041F18D10AE0CB6815E0CB681B1D12E073
:10130000CB6808330FE0CB680C330CE08B682BB153
:10131000012B4FF0080303D0456104E0042302E0F1
:10132000056100E00023FF2A01D8064601E000F134
:1013300004064FEA840501D9A5F12005D6F80080FE
:1013400007FA05FC28EA0C0803FA05F548EA05083F
:10135000C6F800804D68ED005BD5344DAE6946F0AF
:101360000106AE61AD6924F0030605F001050095A4
:101370002F4D06EB050CDCF80850A607360F07FAD0
:1013800006F825EA0805DFF8AC80404503D14FF0A8
:10139000000810E03DE0DFF8A080404502D14FF0AA
:1013A000010808E0DFF89480404502D14FF00208C0
:1013B00001E04FF0030808FA06F848EA0508CCF8FF
:1013C00008804D68D9F80060ED034D4601D51643FD
:1013D00000E096432E604D68DAF80060AD03554694
:1013E00001D5164300E096432E604D68DBF800609F
:1013F000ED025D4601D5164300E096432E604D6830
:10140000DEF80060AD02754601D5164300E0964354
:101410002E60641C0A6832FA04F57FF43FAFBDE821
:10142000F88F00000004014000001110001002407D
:101430000000014000080140000C01400010014084
:101440008068084000D0012070470AB101617047F0
:101450000904FBE701488068704700000000002095
:1014600002488168027811448160704700000020C2
:10147000074810B5016841F010010160032000F039
:1014800075F80F2000F006F800F024F8002010BDD9
:101490000020024070B50D4D04464FF47A71287853
:1014A000B1FBF0F00A490968B1FBF0F000F0ECFA8A
:1014B00048B9102C07D200222146501E00F036F801
:1014C00000206C6070BD012070BD00000000002095
:1014D0000C0000200C4808B5816941F001018161D0
:1014E000816901F001010091C16941F08051C16140
:1014F000C06900F0805000900448416821F0E0612C
:1015000041F08061416008BD0010024000000140D0
:10151000002809DB00F01F020121914040098000F2
:1015200000F1E020C0F8001170470000F0B40E4B4D
:101530001B680C46C3F30223C3F10705042D00D931
:101540000425191D072901D2002300E0DB1E012616
:1015500006FA05F1491E214099409E40761E16402C
:101560003143F0BC00F053BE0CED00E0064900F042
:10157000070208684FF6FF03184040EA0220034ABA
:1015800010430860704700000CED00E00000FA0511
:101590002DE9F0470F46050061D0434E306800F05A
:1015A0000700B84209D2306820F0070038433060A5
:1015B000306800F00700B84251D128683B4C8107E1
:1015C00012D5400703D5606840F4E0606060287879
:1015D000000703D5606840F4605060606068A968E7
:1015E00020F0F000084360602878C00728D06868C1
:1015F000012810D02168022810D0890700292EDA8E
:10160000616821F0030101436160FFF723FF804619
:1016100041F288390DE021688903EFE78901EDE7A0
:10162000FFF718FFA0EB0801494502D90320BDE8E8
:10163000F0876068696800F00C00B0EB810FEFD1B3
:10164000306800F00700B8420BD9306820F007007E
:1016500038433060306800F00700B84201D0012004
:10166000E5E72878400705D56068E96820F4E06080
:10167000084360602878000706D56068296920F46F
:10168000605040EAC100606000F038F86168084AC4
:10169000C1F30311515CC840064908600648006860
:1016A000FFF7F8FE0020C2E70020024000100240D1
:1016B000E42500080C00002004000020044805492F
:1016C00000684968044AC1F30221515CC840704770
:1016D0000C00002000100240F425000804480549D1
:1016E00000684968044AC1F3C221515CC840704790
:1016F0000C00002000100240F425000812A185B063
:101700000FC98DE80F0014A0144A006804905168B6
:10171000134801F00C03042B10D0082B0ED1C1F399
:101720008343C9031DF803000AD5516804AAC1F315
:101730004041515C0A4A5043B0FBF1F005B070479C
:1017400008494843FAE700000203040506070809B0
:101750000A0B0C0D0E0F10100102000000100240C9
:1017600000127A0000093D002DE9F84F040070D006
:101770002078C04DC00749D06868C0F381000128B7
:1017800007D06868C0F38100022809D16868C003E7
:1017900006D52868800339D560680028E7D035E091
:1017A0006068B0F5803F0BD010B1B0F5A02F11D01C
:1017B000286820F480302860286820F4802002E027
:1017C000286840F480302860606890B1FFF742FEDE
:1017D00006460AE0286840F480202860F0E700BF51
:1017E000FFF738FE801B642873D828688003F7D57C
:1017F0000CE0FFF72FFE064605E000BFFFF72AFECC
:10180000801B6428F0D828688003F7D420789A4E8B
:1018100080074FF001094FF0000839D5686810F0D3
:101820000C0F07D06868C0F38100022809D16868EE
:10183000C00306D42868800714D52069012808D180
:1018400010E02069B0B1C6F80090FFF703FE07462C
:1018500005E00AE1FFF7FEFDC01B0228C4D8286896
:101860008007F7D52868616920F0F80040EAC100D8
:1018700028600DE0C6F80080FFF7ECFD074604E0A5
:10188000FFF7E8FDC01B022823D828688007F7D49B
:10189000207800072CD57948A169D9B1C0F800900B
:1018A000FFF7D8FD074604E0FFF7D4FDC01B022870
:1018B0000FD8686A8007F7D571484FF4FA5100686D
:1018C000B0FBF1F0009000BF0098411E0091FAD2E9
:1018D0000EE080E0C0F80080FFF7BCFD074604E0A2
:1018E000FFF7B8FDC01B022875D8686A8007F7D4D7
:1018F0002078400760D5E8690027C00008D4E8696F
:1019000040F08050E861E869012700F080500090C5
:101910005C480168C90513D40168834641F48071AD
:101920000160FFF797FD824606E000BFFFF792FDDA
:10193000A0EB0A0064284ED8DBF80000C005F5D5FE
:10194000E06801280AD008B1052813D0286A20F0E1
:1019500001002862286A20F0040002E0286A40F0B2
:1019600001002862E06841F2883B98B1FFF772FD00
:1019700082460BE0286A40F004002862EEE700BFD0
:10198000FFF768FDA0EB0A0159455AD8286A80077D
:10199000F6D50CE0FFF75EFD824605E0FFF75AFD45
:1019A000A0EB0A0159454CD8286A8007F6D41FB12C
:1019B000E86920F08050E861E06988B36968C1F3A4
:1019C0008101022944D00228C6F8608004D0FFF7C4
:1019D00041FD044638E034E0FFF73CFD074604E0F3
:1019E000FFF738FDC01B02282BD828688001F7D4E8
:1019F000206AB0F5803F05D16868A16820F4003006
:101A000008436860D4E908010843696821F4741147
:101A100008436860C6F86090FFF71CFD044606E0C6
:101A200025E000BFFFF716FD001B022809D8286833
:101A30008001F7D51BE000BFFFF70CFD001B02285B
:101A400002D90320BDE8F88F28688001F4D40EE0A5
:101A50000128F7D06868226A00F48031914204D1ED
:101A6000616A00F47010884201D00120EAE700208A
:101A7000E8E70000001002400000424280044242B9
:101A80000C0000200070004010B5401EB0F1807FB7
:101A900001D3012010BD4FF0E02460610F216017D9
:101AA00000F0B5FB0020A06107202061002010BDE0
:101AB00070477047F8B5026804461068D1685369EA
:101AC00010F00F0F4FF0000554D003F0010601F4A1
:101AD000907737435FD0C20705D0CA0503D5226C83
:101AE00042F001022264420705D5DA0703D0226CD6
:101AF00042F002022264820705D5DA0703D0226C85
:101B000042F004022264020707D501F020023243AA
:101B100003D0226C42F008022264226C002A35D0E5
:101B2000800604D5880602D5204600F06BFA2068AE
:101B30004069216CC0F3801001F008010143204688
:101B400025D000F047FA2068416949061BD5416954
:101B500021F040014161A06BA8B158494163A06BDD
:101B6000FFF730FB002811D0A06B416B01B0BDE83E
:101B7000F040084783060ED58B060CD52046BDE8FD
:101B8000F84000F03FBA2046FFF793FFF8BDFFF79B
:101B900090FF2564F8BD266B2023012E52D1C60686
:101BA00050D5CE064ED5106850680090506940065A
:101BB0002AD5A16B086840680004000CEAD0A68D05
:101BC0008642E7D9E0858869202818D0D06820F4BB
:101BD0008070D0602068416921F001014161206876
:101BE000416921F04001416184F83E30256320685D
:101BF000C16821F01001C160A06BFFF7BFFAA08D92
:101C0000E18D401A81B219E0A08DE18D401A81B2B8
:101C1000E08D0028BED00029BCD0D06820F49070A0
:101C2000D0602068426922F00102426184F83E30AF
:101C300025632068C26822F01002C2602046FFF7C8
:101C400037FFF8BD05062BD50D0629D594F83D00C4
:101C50002128F6D1A068B0F5805F01D12069B0B12C
:101C6000206A411C2162216800784860E08C401E97
:101C70000004000CE084E4D12068C16821F08001F8
:101C8000C1602068C16841F04001C160F8BD206AB0
:101C90000088C0F308005060206A801C2062E5E7DD
:101CA0004006F3D54806F1D5D168204621F0400121
:101CB000D16084F83D3000F0D0F8F8BDC51F0008B1
:101CC00070B5040004D094F83D00002510B106E082
:101CD000012070BD84F83C50204600F023F82420F9
:101CE00084F83D002068C16821F40051C16020469D
:101CF00000F0E4F92068016921F490410161206855
:101D0000416921F02A0141612068C16841F4005114
:101D1000C1602564202084F83D0084F83E00002046
:101D200070BD000030B585B0002400940194029489
:101D300003940068184988422CD11848816941F4FD
:101D400080418161816901F480410491816941F0A0
:101D5000040181618069124D00F0040004904FF489
:101D600000700090022001900320039069462846ED
:101D7000FFF786FA2815CDE9000469462846029443
:101D8000FFF77EFA002211462520FFF7CFFB252022
:101D9000FFF7BEFB05B030BD003801400010024027
:101DA00000080140704700002DE9F843044690F810
:101DB0003D001F4616460D4620284CD1C5B1BEB188
:101DC00094F83C00012846D0012084F83C004FF0F4
:101DD0000008C4F84080212084F83D00FFF73AFB5A
:101DE000A6848146E684A068B0F5805F03D004E055
:101DF0000120BDE8F883206928B12E465FF0000578
:101E000084F83C800EE00026FAE78021204600F0AE
:101E1000B1F9A0B9AEB116F8010B21684860E08CA9
:101E2000401EE084E08C4B464FF0000200970028F3
:101E3000EBD14FF04001204600F09CF930B1032077
:101E4000D7E735F8020BC0F30800E6E7202084F856
:101E50003D000020CDE70220CBE77047FEE7000001
:101E600070B586B000251C48009501950295039534
:101E7000816941F0040181618069184E00F004001D
:101E800004902A4610213046FFF7DFFA0122A021F4
:101E90003046FFF7DAFA1020009001240221CDE944
:101EA0000141039169463046FFF7EAF9A02000900E
:101EB0001120CDE901040320039069463046FFF765
:101EC000DFF94020CDE90005694602943046FFF76E
:101ED000D7F906B070BD00000010024000080140B4
:101EE0000C4810B50A4901604FF496414160002149
:101EF00081600C22C160C0E904128161C161FFF7F9
:101F0000DFFE002803D0BDE81040FFF735B910BD53
:101F10000038014010000020FEE7FEE770477047E0
:101F2000FFF79EBA10B590B028216846FEF7A0F9D9
:101F300014210AA8FEF79CF90220009001200490C9
:101F400010200024059007946846FFF70DFC08B1A7
:101F500072B6FEE70F20CDE90A040C940D9400211F
:101F60000AA80E94FFF714FB002801D072B6FEE712
:101F700010B010BD704710B5044600F0B5F98020D0
:101F800000F0ECF9204600F0E9F9BDE8104000F05F
:101F90009BB970B500F0A8F9022000F0DFF900F05D
:101FA000B7F9044600F0B4F9054600F08DF905EBE9
:101FB000042000B200F046FABDE870406FF007015F
:101FC00000F0D2BA10B5406A0021C185C184FFF784
:101FD00070FD10BD0168CA6822F49072CA60016881
:101FE0004A6922F001024A61016B012904D10168AA
:101FF000CA6822F01002CA60202180F83E10002139
:102000000163704708B590F83E10222901D00220E4
:1020100008BD82684FF480539A4201D1016921B111
:10202000816A9A421BD04AB10AE00268816A52680A
:10203000C2F308020A80816A891C08E0026972B151
:102040000268526802F07F020A70816A491C81624C
:10205000C18D491E0904090CC18503D019E002682D
:102060005268F1E70168CA6822F02002CA6001687C
:10207000CA6822F48072CA6001684A6922F00102CB
:102080004A61202180F83E10016B012903D0FFF73F
:1020900089FE002008BD002101630168CA6822F0A2
:1020A0001002CA6001680A68D20602D50A68496847
:1020B0000091818DFFF7FCFCEBE7000070B5044652
:1020C00000680169E26821F440511143016121690E
:1020D000A0680843616908432168CA6841F20C633B
:1020E0009A430243CA6020684169A26921F44071A1
:1020F000114341611E492068884202D1FFF7EEFA80
:1021000001E0FFF7DBFA00EBC00101EB00126068B1
:1021100064218000B2FBF0F3B3FBF1F36FF018061B
:102120007343B2FBF0F5B2FBF0F605EB8305322307
:1021300003EB0515B5FBF1F5B6FBF1F605F0F0057F
:1021400005EB0615B2FBF0F6B2FBF0F0B0FBF1F0D8
:102150006FF01802504306EB800003EB0010B0FB59
:10216000F1F0216800F00F002844886070BD000085
:10217000003801402DE9F041984617460E460446C6
:10218000069D1DE0681C1BD02DB1FFF763F9A0EB85
:102190000800A84214D92068C16821F4D071C16038
:1021A0002068416921F001014161202084F83D004F
:1021B00084F83E00002084F83C000320BDE8F08154
:1021C0002068006836EA000004D00020B842D9D068
:1021D0000020F3E70120F9E70148FFF76BBC00009E
:1021E00010000020FEE7490050EAC12018BF04207B
:1021F0004A0D18BF40F0010040F2FF72B2EB515F90
:1022000008BF40F00200012808BF052070470907F9
:10221000090E002804DB00F1E02080F8001470476C
:1022200000F00F0000F1E02080F8141D70474FF619
:10223000FF7101EAC000401E80B2FCD2704700006E
:1022400088B01AA30FCB8DE80F00FFF711F9FFF745
:1022500069FEFFF705FEFFF743FE4FF461740C23A0
:102260001A4669461548FFF79FFD1520FFF783FEC4
:102270006420FEF7F3FFFFF78CFE00F0B1F8024692
:102280000B460FA104A8FDF7ABFF07231A4604A9CC
:102290000A48FFF789FD02231A460AA10748FFF7FB
:1022A00083FD2046FEF7DAFFD9E7000054656D7024
:1022B000657261747572653A0000000010000020BC
:1022C000256600000A0D000010B5064C01222021F1
:1022D0002046FFF7BAF820460022BDE81040102142
:1022E000FFF7B3B80008014010B5084C01221021D7
:1022F0002046FFF7AAF8002220212046FFF7A5F884
:10230000BDE810400420FFF792BF00000008014024
:1023100070B50025104E2C460420FFF788FF680694
:10232000050E002220213046FFF78FF8402130466D
:10233000FFF786F801280CD005F0FE0501222021C8
:102340003046FFF782F8641CE4B2082CE4D3284638
:1023500070BD45F00105F1E70008014070B5114E70
:1023600005460024002220213046FFF76EF80420A5
:10237000FFF75DFF280601D5012200E00022802141
:102380003046FFF762F86806050E0122202130462C
:10239000FFF75BF80420FFF74AFF641CE4B2082C47
:1023A000E0D370BD0008014010B500290AD00878BC
:1023B000002807D005487844FEF7DAFA002801D053
:1023C000002010BD0248784410BD0000FA02000051
:1023D000F20200000808A0F500114FEA3101704731
:1023E00043004FEAD30C4FEA3C0C43401FBF400769
:1023F0000CF1605113F0FE4F70471CF0006F03D1D9
:1024000000200CF0004170470CF0004343EA50708C
:1024100010B540EACC0000F02DF800BF000000929B
:102420004FEA0001FFF7D6BF4FF000414FF0000028
:10243000A1F5002170470000014800F063B800BF1B
:102440000000C07F10F0004148BF4042B0FA80F366
:1024500010FA03F2C3F19D030BD051EAC35101EB13
:102460001220530638BF704700F1010008BF20F06A
:10247000010070470EF1020E2EF0030E5EF8044BC1
:10248000244204D44FEA4102B2F17F4F11D84FEAFF
:102490004003B3F17F4F0CD80ED14FEAD07CB2F19C
:1024A0007F4F0CEB4C0C0CF1020C08BF4CEBD17CB9
:1024B00004E04FF0080C01E04FEAD17C0CEB4C0338
:1024C00024FA03F404F00704B4F1040C06D20EEB72
:1024D000840CBDE810404CF0010C6047DFE80CF0C4
:1024E000070802024FF00040A0F5800010BD08462A
:1024F000420018BFD2F1807288BF00F0004010BDCA
:10250000FDF7B7BF0CF00F03092B08BF082000F040
:1025100051800A2B0BD0082B18BF704708BF1CF046
:10252000400F0AD04FF000004FF0000170471CF040
:10253000400F18BF4FF0004070471CF0100F08D03C
:1025400020F0704300F07F4242EAD3014FEA43702B
:10255000704700F0604021F07F4242EA000201F043
:102560007F4040EA727070474FF0FF0212EAD0528B
:102570001CBF92F0FF038B42C2BFD14200EBC1509F
:102580007047002A0AD0002B0BD0002900F0004031
:10259000A4BF40F0FE4040F40000704700F000404F
:1025A000704743024FF00B0C18BF4CF0806C7FF467
:1025B00043AF70471CF4801F11D01CF4E02F03D0F0
:1025C0006FEACC31490070474FF04050EFF3008282
:1025D00022F0704242EA000282F3008870474FF016
:1025E000000070470000000000000000010203042A
:1025F0000607080900000000010203040240000071
:10260000000000A00000000005400000000000C81D
:10261000000000000C4000000000409C0000000092
:10262000194000000020BCBE000000003440000043
:10263000BFC91B8E00000004B5400000504BCFD036
:102640006607E2CF010000006C4100003E8251AA03
:10265000DFEEA73401000000D9420000DCB5A0E2A3
:102660003A301F97FFFFFFFFB4450000FD25A0C8CB
:10267000E9A3C14FFFFFFFFFFF3F00000000008004
:1026800000000000FF3F000000000080000000008C
:10269000CC260008000000201000000028010008DF
:1026A000DC26000810000020A806000044010008F5
:1026B0001C00000043000000F8FFFFFF0C000000BA
:1026C0000E0000000F0000002E00000001000000BE
:0C26D00010000000000000000024F400D6
:04000005080000ED02
:00000001FF
