:020000040800F2
:100000000807002091010008AB1400081B1300082A
:10001000A91400088F0400086917000800000000F8
:10002000000000000000000000000000AF14000805
:100030009104000800000000AD140008211500081C
:10004000AB010008AB010008AB010008AB010008E0
:10005000AB010008AB0100089304000899040008F4
:100060009F040008A5040008AB040008AB010008C9
:10007000AB010008AB010008AB010008AB010008B0
:10008000AB010008AB010008AB010008AB010008A0
:10009000AB010008AB010008AB010008B104000887
:1000A000AB010008AB010008AB010008AB01000880
:1000B000AB0100087915000800000000AB01000842
:1000C000AB0100080000000000000000AB010008C8
:1000D00000000000AB010008AB01000800000000B8
:1000E000AB010008AB010008AB01000800F002F80A
:1000F00000F03FF80AA090E8000C82448344AAF183
:100100000107DA4501D100F034F8AFF2090EBAE880
:100110000F0013F0010F18BFFB1A43F0010318473B
:100120000817000028170000103A24BF78C878C1CB
:10013000FAD8520724BF30C830C144BF04680C60ED
:10014000704700000023002400250026103A28BF35
:1001500078C1FBD8520728BF30C148BF0B60704739
:10016000642900F07D80002070471FB51FBD10B5C9
:1001700010BD00F052F91146FFF7F7FF01F006FB42
:1001800000F070F903B4FFF7F2FF03BC00F078F958
:100190000948804709480047FEE7FEE7FEE7FEE71B
:1001A000FEE7FEE7FEE7FEE7FEE7FEE70448054957
:1001B000054A064B7047000075150008ED00000861
:1001C0000801002008070020080300200803002081
:1001D0000FB41CB5074B06AA7B44694600900598EE
:1001E00000F003F90020694600F012F91CBC5DF82C
:1001F00014FB0000350200002DE9F0410E460446D4
:10020000002020622046E168884730B3252805D0C9
:10021000D4E901219047206A401CF2E7E1682046BA
:1002200000278847050018D0A5F14100192802D8F9
:1002300020354FF400673246294620462760FFF7F5
:100240008FFF40B1012804D0F61D26F007060836BE
:10025000D8E7361DD6E72846DAE7206ABDE8F08100
:100260002DE9F0410646002410687529314616A58F
:1002700010D0AFF30080002802DA404213A507E057
:1002800031688A0701D512A502E0490704D511A5F6
:10029000012401E0AFF3008000210A2206F12407C7
:1002A00009E0B0FBF2FCB0FBF2F302FB1C003030C3
:1002B00078541846491C0028F3D123462A46304674
:1002C000BDE8F04100F032B8000000002D00000051
:1002D0002B000000200000004FF0000200B5134684
:1002E00094469646203922BFA0E80C50A0E80C5056
:1002F000B1F12001BFF4F7AF090728BFA0E80C5007
:1003000048BF0CC05DF804EB890028BF40F8042BFF
:1003100008BF704748BF20F8022B11F0804F18BF6C
:1003200000F8012B70477047704770472DE9F04780
:100330000D4699469246044600F124080168880655
:1003400004D5E06921F01001216000E00120A842FD
:1003500001DD471B00E00027A1697A1902EB0900C3
:10036000081AA0612078C00602D42046AFF30080AE
:10037000002608E0D4E901211AF806009047206A17
:10038000401C761C20624E45F4DB2078C0060AD55E
:100390002046AFF3008006E0D4E9012130209047E9
:1003A000206A401C2062381EA7F10107F4DC07E038
:1003B000D4E9012118F805009047206A401C20620A
:1003C000281EA5F10105F3DC2046AFF3008020785C
:1003D000000602D50220BDE8F0870120FBE70000FF
:1003E00001694A1C02610878704700B58FB0CDE9F9
:1003F00001310021059105497944CDE903101146E9
:100400006846FFF7F9FE0FB000BD0000E5FFFFFFF3
:100410000A6802F8010B0A607047754600F02CF874
:10042000AE4605006946534620F00700854618B0E1
:1004300020B5FFF7BBFEBDE820404FF000064FF0AF
:1004400000074FF000084FF0000B21F00701AC4609
:10045000ACE8C009ACE8C009ACE8C009ACE8C00928
:100460008D46704710B50446AFF300802046BDE8C6
:100470001040FFF787BE000000487047A40000202E
:1004800001491820ABBEFEE7260002007047FEE7D8
:100490007047012000F062B8022000F05FB804202D
:1004A00000F05CB8082000F059B8102000F056B8F1
:1004B00010B5202000F052F8BDE81040402000F0B8
:1004C0004DB872B6FEE700002DE9F0410125432644
:1004D0001F4C012817D04127022816D0042832D0FB
:1004E0001C4A214608284988136818D010281AD0B9
:1004F000194A202821D040280FD14021104600F071
:1005000019F910B11FE0267000E02770114800F0C3
:10051000C7FC207900F0CCFF6570BDE8F08131297F
:1005200007D9323904E040F2E730814201D232315A
:1005300061806088D862D060EEE72021104600F02C
:10054000F9F80028DFD0BDE8F041024800F0D0BC47
:100550000000002018000020000C0140044910B5E4
:100560000A68024202D00860FFF7AEFF10BD00002B
:10057000140401402DE9F84FDFF89C91002409F1A3
:10058000040A0AF1040B23460F270BF1040EBBE00B
:100590000125A5402A40AA4276D1DFF880C14E68E5
:1005A000A6EB0C0866452BD00DDC032E34D005DC01
:1005B00036B3012E19D0022E2FD11BE0112E16D0EA
:1005C000122E2AD119E0B8F5881F19D006DCB8F52B
:1005D000803F15D0B8F5801F1FD111E0B8F5001F7E
:1005E0000ED0B8F5041F18D10AE0CB6815E0CB682F
:1005F0001B1D12E0CB6808330FE0CB680C330CE016
:100600008B682BB1012B4FF0080303D0456104E048
:10061000042302E0056100E00023FF2A01D806461A
:1006200001E000F104064FEA840501D9A5F1200597
:10063000D6F8008007FA05FC28EA0C0803FA05F54D
:1006400048EA0508C6F800804D68ED005BD5344DDA
:10065000AE6946F00106AE61AD6924F0030605F00F
:10066000010500952F4D06EB050CDCF80850A60798
:10067000360F07FA06F825EA0805DFF8AC80404592
:1006800003D14FF0000810E03DE0DFF8A0804045C6
:1006900002D14FF0010808E0DFF89480404502D114
:1006A0004FF0020801E04FF0030808FA06F848EAA4
:1006B0000508CCF808804D68D9F80060ED034D4678
:1006C00001D5164300E096432E604D68DAF80060CD
:1006D000AD03554601D5164300E096432E604D68A4
:1006E000DBF80060ED025D4601D5164300E096435D
:1006F0002E604D68DEF80060AD02754601D51643E8
:1007000000E096432E60641C0A6832FA04F57FF418
:100710003FAFBDE8F88F0000000401400000111059
:10072000001002400000014000080140000C0140A0
:10073000001001408068084000D0012070470AB1D5
:10074000016170470904FBE70148806870470000B9
:1007500008000020024881680278114481607047D7
:1007600008000020074810B5016841F01001016041
:10077000032000F075F80F2000F006F800F024F8D0
:10078000002010BD0020024070B50D4D04464FF40E
:100790007A712878B1FBF0F00A490968B1FBF0F0F2
:1007A00000F0ECFA48B9102C07D200222146501E66
:1007B00000F036F800206C6070BD012070BD0000B4
:1007C00008000020140000200C4808B5816941F0A1
:1007D00001018161816901F001010091C16941F06C
:1007E0008051C161C06900F08050009004484168A8
:1007F00021F0E06141F08061416008BD00100240DD
:1008000000000140002809DB00F01F020121914097
:100810004009800000F1E020C0F80011704700009E
:10082000F0B40E4B1B680C46C3F30223C3F107055B
:10083000042D00D90425191D072901D2002300E049
:10084000DB1E012606FA05F1491E214099409E4013
:10085000761E16403143F0BC00F087BF0CED00E07F
:10086000064900F0070208684FF6FF03184040EA07
:100870000220034A10430860704700000CED00E0BE
:100880000000FA052DE9F0470F46050061D0434E00
:10089000306800F00700B84209D2306820F0070045
:1008A00038433060306800F00700B84251D1286802
:1008B0003B4C810712D5400703D5606840F4E060E7
:1008C00060602878000703D5606840F4605060607D
:1008D0006068A96820F0F000084360602878C007CD
:1008E00028D06868012810D02168022810D0890714
:1008F00000292EDA616821F0030101436160FFF7EE
:1009000023FF804641F288390DE021688903EFE733
:100910008901EDE7FFF718FFA0EB0801494502D96F
:100920000320BDE8F0876068696800F00C00B0EB58
:10093000810FEFD1306800F00700B8420BD9306862
:1009400020F0070038433060306800F00700B842FC
:1009500001D00120E5E72878400705D56068E968FF
:1009600020F4E060084360602878000706D56068DE
:10097000296920F4605040EAC100606000F038F856
:100980006168084AC1F30311515CC8400649086018
:1009900006480068FFF7F8FE0020C2E7002002408A
:1009A0000010024010180008140000200C00002065
:1009B0000448054900684968044AC1F30221515CB2
:1009C000C8407047140000200010024020180008A2
:1009D0000448054900684968044AC1F3C221515CD2
:1009E000C840704714000020001002402018000882
:1009F00012A185B00FC98DE80F0014A0144A006839
:100A000004905168134801F00C03042B10D0082BFC
:100A10000ED1C1F38343C9031DF803000AD5516801
:100A200004AAC1F34041515C0A4A5043B0FBF1F0C3
:100A300005B0704708494843FAE70000020304057F
:100A4000060708090A0B0C0D0E0F1010010200001A
:100A50000010024000127A0000093D002DE9F84F15
:100A6000040070D02078C04DC00749D06868C0F33A
:100A70008100012807D06868C0F38100022809D1ED
:100A80006868C00306D52868800339D560680028E7
:100A9000E7D035E06068B0F5803F0BD010B1B0F51D
:100AA000A02F11D0286820F480302860286820F416
:100AB000802002E0286840F480302860606890B1AF
:100AC000FFF742FE06460AE0286840F480202860CE
:100AD000F0E700BFFFF738FE801B642873D8286852
:100AE0008003F7D50CE0FFF72FFE064605E000BFB8
:100AF000FFF72AFE801B6428F0D828688003F7D40B
:100B000020789A4E80074FF001094FF0000839D540
:100B1000686810F00C0F07D06868C0F381000228E5
:100B200009D16868C00306D42868800714D52069F5
:100B3000012808D110E02069B0B1C6F80090FFF795
:100B400003FE074605E00AE1FFF7FEFDC01B022891
:100B5000C4D828688007F7D52868616920F0F800B4
:100B600040EAC10028600DE0C6F80080FFF7ECFD08
:100B7000074604E0FFF7E8FDC01B022823D82868D9
:100B80008007F7D4207800072CD57948A169D9B11E
:100B9000C0F80090FFF7D8FD074604E0FFF7D4FD4A
:100BA000C01B02280FD8686A8007F7D571484FF438
:100BB000FA510068B0FBF1F0009000BF0098411EB0
:100BC0000091FAD20EE080E0C0F80080FFF7BCFD93
:100BD000074604E0FFF7B8FDC01B022875D8686A15
:100BE0008007F7D42078400760D5E8690027C00067
:100BF00008D4E86940F08050E861E869012700F016
:100C0000805000905C480168C90513D40168834690
:100C100041F480710160FFF797FD824606E000BF56
:100C2000FFF792FDA0EB0A0064284ED8DBF8000025
:100C3000C005F5D5E06801280AD008B1052813D011
:100C4000286A20F001002862286A20F0040002E0EF
:100C5000286A40F001002862E06841F2883B98B1C0
:100C6000FFF772FD82460BE0286A40F0040028621C
:100C7000EEE700BFFFF768FDA0EB0A0159455AD81F
:100C8000286A8007F6D50CE0FFF75EFD824605E096
:100C9000FFF75AFDA0EB0A0159454CD8286A800796
:100CA000F6D41FB1E86920F08050E861E06988B3AC
:100CB0006968C1F38101022944D00228C6F8608026
:100CC00004D0FFF741FD044638E034E0FFF73CFD77
:100CD000074604E0FFF738FDC01B02282BD8286820
:100CE0008001F7D4206AB0F5803F05D16868A1681B
:100CF00020F4003008436860D4E9080108436968BB
:100D000021F4741108436860C6F86090FFF71CFD79
:100D1000044606E025E000BFFFF716FD001B022891
:100D200009D828688001F7D51BE000BFFFF70CFD4C
:100D3000001B022802D90320BDE8F88F2868800133
:100D4000F4D40EE00128F7D06868226A00F48031FC
:100D5000914204D1616A00F47010884201D00120F0
:100D6000EAE70020E8E700000010024000004242ED
:100D700080044242140000200070004010B5401E64
:100D8000B0F1807F01D3012010BD4FF0E0246061FD
:100D90000F21601700F0E9FC0020A061072020610E
:100DA000002010BD7047704770B590F83C20012AB4
:100DB00023D0012480F83C40022280F83D200368C3
:100DC0005A689D6822F070060A6832435A600C4BDC
:100DD00002689A4205D0B2F1804F02D0094B9A4284
:100DE00004D1496825F080031943916080F83D40A3
:100DF000002180F83C10084670BD022070BD000044
:100E0000002C01400004004010B5040003D094F809
:100E10003D0010B107E0012010BD002084F83C0027
:100E2000204600F01FF8022084F83D00211D2068B4
:100E300000F0A8FB012084F8460084F83E0084F806
:100E40003F0084F8400084F8410084F8420084F8B0
:100E5000430084F8440084F8450084F83D000020F5
:100E600010BD000008B500680B49884212D10B483C
:100E7000C16941F00201C161C069002200F00200B5
:100E8000009011461D20FFF7CBFCBDE808401D2057
:100E9000FFF7B8BC08BD000000040040001002408D
:100EA00090F83D10012901D001207047022180F8FF
:100EB0003D100168CA6842F00102CA6000680A4930
:100EC000884205D0B0F1804F02D00849884204D151
:100ED000816801F00701062903D0016841F0010192
:100EE0000160002070470000002C01400004004019
:100EF00001680A6A41F211131A4207D10A6A9B106B
:100F00001A4203D10A6822F001020A60012180F826
:100F10003D100020704770B5044690F83C00012851
:100F200017D0012584F83C50022084F83D00206849
:100F3000826822F0770222F47F428260086850289B
:100F400030D00DDC20284DD005DC98B310283BD1E3
:100F500048E0022070BD302844D0402834D139E028
:100F6000602828D0702806D0B0F5805F2CD0B0F56E
:100F7000005F29D10AE0CB68D1E90121206800F0A7
:100F80002FFB2068816841F0770109E0CB68D1E947
:100F90000121206800F024FB2068816841F4804131
:100FA000816011E0CA684968206800F02BFB50217D
:100FB000206807E016E0CA684968206800F033FB43
:100FC0006021206800F016FB84F83D50002084F872
:100FD0003C0070BDCA684968206800F013FB4021DE
:100FE0002068EFE7226801461046EBE7704770B5CE
:100FF0000446006801694FF00005C943890715D40C
:10100000C168C943890711D4E91E01610120207715
:10101000206880698007204602D0FFF7E7FF04E0E0
:1010200000F098F8204600F096F8257720680169CE
:10103000C943490717D4C168C943490713D46FF09E
:1010400004010161022020772068806910F4407F4C
:10105000204602D0FFF7CAFF04E000F07BF82046EC
:1010600000F079F8257720680169C943090716D48B
:10107000C168C943090712D46FF008010161042057
:1010800020772068C0698007204602D0FFF7AEFFB6
:1010900004E000F05FF8204600F05DF82577206856
:1010A0000169C943C90617D4C168C943C90613D425
:1010B0006FF010010161082020772068C06910F4EA
:1010C000407F204602D0FFF791FF04E000F042F895
:1010D000204600F040F8257720680169C943C90718
:1010E00008D1C168C943C90704D1891E01612046DE
:1010F00000F032F820680169C943090609D4C168C3
:10110000C943090605D46FF0800101612046FFF74D
:1011100049FE20680169C943490609D4C168C94329
:10112000490605D46FF040010161204600F032F815
:1011300020680169C94389060BD4C168C94389067F
:1011400007D46FF0200101612046BDE87040FFF731
:101150002ABE70BD704770470C49884215D10C48B3
:10116000014602784968432A09D0412A0DD1491E17
:10117000416001D504214160007900F099B9491C12
:1011800041600429F8DD0121F5E7704718000020CF
:1011900000000020704770B5040004D094F83D00B2
:1011A000002510B106E0012070BD84F83C502046B7
:1011B00000F022F8242084F83D002068C16821F462
:1011C0000051C160204600F041FA2068016921F415
:1011D000904101612068416921F02A014161206844
:1011E000C16841F40051C1602564202084F83D00AD
:1011F00084F83E00002070BD30B585B00024009416
:1012000001940294039400681449884224D114483C
:10121000816941F480418161816901F480410491D7
:10122000816941F00401816180690E4D00F0040084
:1012300004904FF40070009002200190032003906E
:1012400069462846FFF796F92815CDE90004694656
:1012500028460294FFF78EF905B030BD00380140F2
:1012600000100240000801402DE9F843044690F8C0
:101270003D001F4616460D4620284CD1C5B1BEB1D3
:1012800094F83C00012846D0012084F83C004FF03F
:101290000008C4F84080212084F83D00FFF754FA8C
:1012A000A6848146E684A068B0F5805F03D004E0A0
:1012B0000120BDE8F883206928B12E465FF00005C3
:1012C00084F83C800EE00026FAE78021204600F0FA
:1012D00019FAA0B9AEB116F8010B21684860E08C8C
:1012E000401EE084E08C4B464FF00002009700283F
:1012F000EBD14FF04001204600F004FA30B103205A
:10130000D7E735F8020BC0F30800E6E7202084F8A1
:101310003D000020CDE70220CBE7FEE770B586B0A8
:10132000002435480094019402940394816941F0AB
:1013300008018161816901F008010491816941F02E
:1013400010018161816901F010010491816941F00E
:10135000040181618069294E00F004004FF470752A
:101360000490002229463046FFF7E9F97F200090DB
:101370002348CDE9010469462248FFF7FBF8112014
:101380000095CDE901040220039069463046FFF73D
:10139000F1F8002211460620FFF742FA0620FFF777
:1013A00031FA002211460720FFF73AFA0720FFF72B
:1013B00029FA002211460820FFF732FA0820FFF729
:1013C00021FA002211460920FFF72AFA0920FFF727
:1013D00019FA002211460A20FFF722FA0A20FFF725
:1013E00011FA002211461720FFF71AFA1720FFF70B
:1013F00009FA06B070BD0000001002400010014064
:1014000000001110000C014010B586B000241748F0
:101410000094019402940394049413490594016088
:1014200041F63F71C0E90114C910C0E90314846199
:10143000FFF7EAFC08B1FFF744F84FF48050009042
:1014400069460A48FFF767FD08B1FFF73AF80494C8
:1014500004A906480594FFF7A7FC002801D0FFF770
:1014600030F806B010BD0000000400401800002055
:101470000C4810B50A4901604FF4964141600021C3
:1014800081600C22C160C0E904128161C161FFF773
:1014900082FE002803D0BDE81040FFF712B810BD4F
:1014A0000038014060000020FEE7FEE7704770470B
:1014B0002DE9F041194C4FF44075012814D06F10FC
:1014C0004FF41076022817D003281DD0042823D10A
:1014D000002239462046FFF732F9012231462046E4
:1014E000BDE8F041FFF72BB9002229462046FFF75F
:1014F00026F90122C021F2E7002231462046FFF7FB
:101500001EF901223946EAE70022C0212046FFF7F2
:1015100016F901222946E2E7BDE8F08100100140FA
:10152000FFF718B910B590B028216846FEF7D4FE31
:1015300014210AA8FEF7D0FE02200090012004909A
:1015400010200024059007946846FFF787FA08B139
:1015500072B6FEE70F20CDE90A040C940D94002129
:101560000AA80E94FFF78EF9002801D072B6FEE7A4
:1015700010B010BD704700000148FFF738BD0000F3
:101580001800002070B50268134B144C4FF08046D1
:10159000984203D0B04201D0A04203D122F070059E
:1015A0004A682A43984203D0B04201D0A04203D1F6
:1015B00022F44074CA6822434C6922F0800222431C
:1015C00002608A68C2620A688262984201D109692F
:1015D00001630121416170BD002C01400004004005
:1015E00010B5846842EA032224F47F440A4322436C
:1015F000826010BD826822F070020A4342F0070147
:101600008160704710B5036A046A24F00104046223
:10161000846924F0F00444EA021423F00A020A4325
:101620008461026210BD10B5036A23F010030362E7
:101630008369046A23F4704343EA023224F0A0036E
:1016400043EA01118261016210BD000070B50446D9
:1016500000680169E26821F4405111430161216988
:10166000A0680843616908432168CA6841F20C63B5
:101670009A430243CA6020684169A26921F440711B
:10168000114341611E492068884202D1FFF7A0F949
:1016900001E0FFF78DF900EBC00101EB001260687B
:1016A00064218000B2FBF0F3B3FBF1F36FF0180696
:1016B0007343B2FBF0F5B2FBF0F605EB8305322382
:1016C00003EB0515B5FBF1F5B6FBF1F605F0F005FA
:1016D00005EB0615B2FBF0F6B2FBF0F0B0FBF1F053
:1016E0006FF01802504306EB800003EB0010B0FBD4
:1016F000F1F0216800F00F002844886070BD000000
:10170000003801402DE9F041984617460E46044640
:10171000069D1DE0681C1BD02DB1FFF715F8A0EB4E
:101720000800A84214D92068C16821F4D071C160B2
:101730002068416921F001014161202084F83D00C9
:1017400084F83E00002084F83C000320BDE8F081CE
:101750002068006836EA000004D00020B842D9D0E2
:101760000020F3E70120F9E7FEE70907090E00284A
:1017700004DB00F1E02080F80014704700F00F0057
:1017800000F1E02080F8141D7047000008B5FEF756
:10179000E9FFFFF7C7FEFFF7C1FDFFF735FEFFF7D3
:1017A00067FE1248104C02686188D1620025C16052
:1017B00060780128FCD112231A460DA11148FFF7C9
:1017C00053FD628810A16846FEF702FD03231A4606
:1017D00069460C48FFF748FD02231A460BA1094849
:1017E000FFF742FD6570E3E70000002018000020CD
:1017F00054696D6520496E74657276616C5B6D73BA
:101800005D00000060000020256400000A0D00005B
:1018100000000000000000000102030406070809A0
:101820000000000001020304481800080000002026
:1018300018000000280100086018000818000020A7
:10184000F0060000440100084300310001000000E0
:101850000100000010000000000000000024F4005F
:04000005080000ED02
:00000001FF
